:020000040800F2
:10000000000002200D0E0008A5070008AB0700083D
:10001000B1070008B7070008BD070008000000008E
:10002000000000000000000000000000C3070008FE
:10003000CF07000800000000DB070008E707000802
:100040005D0E00085D0E00085D0E00085D0E0008E4
:100050005D0E00085D0E00085D0E00085D0E0008D4
:100060005D0E00085D0E00085D0E00085D0E0008C4
:100070005D0E00085D0E00085D0E00085D0E0008B4
:100080005D0E00085D0E00085D0E00085D0E0008A4
:100090005D0E00085D0E00085D0E00085D0E000894
:1000A0005D0E00085D0E00085D0E00085D0E000884
:1000B0005D0E00085D0E00085D0E00085D0E000874
:1000C0005D0E00085D0E00085D0E00085D0E000864
:1000D0005D0E00085D0E00085D0E00085D0E000854
:1000E0005D0E00085D0E00085D0E00085D0E000844
:1000F0005D0E00085D0E00085D0E00085D0E000834
:100100005D0E00085D0E00085D0E00085D0E000823
:100110005D0E00085D0E00085D0E00085D0E000813
:100120005D0E00085D0E00085D0E00085D0E000803
:100130005D0E00085D0E00085D0E00085D0E0008F3
:100140005D0E00085D0E00085D0E00085D0E0008E3
:100150005D0E00085D0E00085D0E00085D0E0008D3
:100160005D0E00085D0E00085D0E00085D0E0008C3
:100170005D0E00085D0E00085D0E00080000000026
:040180005D0E000808
:1001840010B5054C237833B9044B13B10448AFF3CD
:1001940000800123237010BD6C00002000000000CB
:1001A40028DD000808B5034B1BB103490348AFF32E
:1001B400008008BD000000007000002028DD000859
:1001C400034613F8012B002AFBD1181A0138704793
:1001D40053B94AB9002908BF00281CBF4FF0FF31AA
:1001E4004FF0FF3000F072B9ADF1080C6DE904CEA8
:1001F40000F006F8DDF804E0DDE9022304B07047FE
:100204002DE9F047089E0D4604468E46002B4CD13E
:100214008A42944667D9B2FA82F353B102FA03FCD4
:10022400C3F1200201FA03FE20FA02F242EA0E0EA2
:100234009C404FEA1C47BEFBF7F11FFA8CF507FB05
:1002440011EE01FB05F0220C42EA0E4290420AD95B
:100254001CEB020201F1FF3E80F01981904240F252
:10026400168102396244121AB2FBF7F007FB10221E
:1002740000FB05F5A4B244EA0244A5420AD91CEBEA
:10028400040400F1FF3280F00481A54240F20181B0
:100294006444023840EA01400021641B1EB1DC4082
:1002A4000023C6E90043BDE8F0878B4208D9002E3D
:1002B40000F0EA800021C6E900050846BDE8F087A1
:1002C400B3FA83F1002948D1AB4202D3824200F24F
:1002D400F880841A65EB030201209646002EE2D0D2
:1002E400C6E9004EDFE702B9FFDEB2FA82F3002B63
:1002F40040F08E80881A0121170C1FFA82FEB0FB91
:10030400F7F507FB1500220C42EA00420EFB05F04C
:10031400904208D91CEB020205F1FF3802D2904248
:1003240000F2CC804546121AB2FBF7F007FB10220C
:100334000EFB00FEA4B244EA0244A64508D91CEB15
:10034400040400F1FF3202D2A64500F2B480104644
:10035400A4EB0E0440EA0540A0E7C1F120078B405E
:1003640022FA07FC4CEA030C25FA07FA4FEA1C4967
:10037400BAFBF9F88D4020FA07F309FB18AA1FFA13
:100384008CFE2B4300FA01F508FB0EF01C0C44EA2A
:100394000A44A04202FA01F20BD91CEB040408F14E
:1003A400FF3A80F08680A04240F28380A8F10208E0
:1003B4006444241A98B2B4FBF9F309FB134403FB15
:1003C4000EFE40EA0444A64508D91CEB040403F1DC
:1003D400FF306AD2A64568D9023B644443EA084028
:1003E400A0FB0293A4EB0E049C42C8469E4654D341
:1003F40051D0002E67D0B5EB080364EB0E04CB405C
:1004040004FA07F71F43CC40C6E9007400214AE709
:1004140002FA03FCC3F12000C1409D4024FA00F01D
:100424004FEA1C472843B1FBF7F507FB15111FFAE8
:100434008CFE020C42EA014205FB0EF1914204FAE1
:1004440003F408D91CEB020205F1FF382FD29142C4
:100454002DD9023D6244521AB2FBF7F107FB112277
:1004640080B240EA024001FB0EF2824208D91CEB42
:10047400000001F1FF3816D2824214D902396044D7
:10048400801A41EA05413AE7314630460BE77146A6
:10049400E9E61046FEE64D45ABD2B9EB020863EB44
:1004A4000C0E0138A5E74146EAE7034696E74546C0
:1004B400D1E7D0467DE76444023849E7023D62440F
:1004C40031E708460AE73146EDE600BF704700BF52
:1004D40080B500AF00F0C2FC00F00EF800F054F854
:1004E40002F036FD00F02AFA024803F027F90AF078
:1004F40083F8F9E79000002080B592B000AF07F1CF
:1005040018033022002118460CF0CBFD3B1D0022BD
:100514001A605A609A60DA601A610223BB6101238F
:100524007B621023BB6202233B6300237B630D23A6
:10053400BB63C323FB6302233B6405237B6407F192
:100544001803184602F0AEF80346002B01D000F061
:10055400FBF80F237B600223BB600023FB604FF496
:10056400A0533B614FF480537B613B1D032118462C
:1005740002F0ECFA0346002B01D000F0E5F800BFCE
:100584004837BD4680BD000080B58CB000AF07F190
:100594001C0300221A605A609A60DA601A61002310
:1005A400BB61634B1B6B624A43F004031363604BF0
:1005B4001B6B03F00403BB61BB6900237B615C4BD1
:1005C4001B6B5B4A43F080031363594B1B6B03F0B3
:1005D40080037B617B6900233B61554B1B6B544A51
:1005E40043F001031363524B1B6B03F001033B61A4
:1005F4003B690023FB604E4B1B6B4D4A43F00203E7
:1006040013634B4B1B6B03F00203FB60FB6800237B
:10061400BB60474B1B6B464A43F008031363444BD0
:100624001B6B03F00803BB60BB6800237B60404B7B
:100634001B6B3F4A43F0400313633D4B1B6B03F0BA
:1006440040037B607B68002244F28101394802F058
:1006540011F800224021384802F00CF84FF40053FE
:10066400FB614FF488133B6200237B6207F11C0398
:100674001946324801F060FE44F28103FB61012314
:100684003B6200237B620023BB6207F11C03194613
:10069400284801F051FE4FF44073FB6102233B6292
:1006A40000237B620323BB620723FB6207F11C0365
:1006B4001946234801F040FE4023FB6101233B62BD
:1006C40000237B620023BB6207F11C0319461A480E
:1006D40001F032FE8023FB6100233B6200237B6236
:1006E40007F11C031946144801F026FE4FF4E853A1
:1006F400FB6102233B6200237B620323BB620A2368
:10070400FB6207F11C0319460E4801F015FE4FF475
:100714000073FB6100233B6200237B6207F11C032F
:100724001946084801F008FE00BF3037BD4680BDB9
:100734000038024000040240001802400008024051
:10074400000C02400000024080B400AF72B600BF4B
:10075400FEE7000080B483B000AF00237B600F4B42
:100764005B6C0E4A43F4804353640C4B5B6C03F4A0
:1007740080437B607B6800233B60084B1B6C074A0B
:1007840043F080531364054B1B6C03F080533B60B0
:100794003B6800BF0C37BD4680BC70470038024040
:1007A40080B400AFFEE780B400AFFEE780B400AFD2
:1007B400FEE780B400AFFEE780B400AFFEE780B48C
:1007C40000AF00BFBD4680BC704780B400AF00BF1F
:1007D400BD4680BC704780B400AF00BFBD4680BC3E
:1007E400704780B500AF00F08BFB00BF80BD80B5C3
:1007F40086B000AFF860B9607A6000237B610AE0DC
:10080400AFF300800146BB685A1CBA60CAB21A70C2
:100814007B6901337B617A697B689A42F0DB7B6890
:1008240018461837BD4680BD80B586B000AFF86065
:10083400B9607A6000237B6109E0BB685A1CBA6026
:100844001B781846AFF300807B6901337B617A69BA
:100854007B689A42F1DB7B6818461837BD4680BD39
:1008640080B483B000AF78604FF0FF3318460C3784
:10087400BD4680BC704780B483B000AF78603960F7
:100884003B684FF400525A60002318460C37BD46AB
:1008940080BC704780B483B000AF786001231846F1
:1008A4000C37BD4680BC704780B485B000AFF8609B
:1008B400B9607A60002318461437BD4680BC70477F
:1008C40080B487B000AF7860144A154BD31A7B61AB
:1008D4007B693B61134B1B68002B02D1114B124AFD
:1008E4001A60104B1A687B6813443A699A4205D21D
:1008F4000E4B0C221A604FF0FF3309E0094B1B68C2
:10090400FB60084B1A687B681344064A1360FB6853
:1009140018461C37BD4680BC704700BF000002204B
:100924000004000088000020988B0020888B0020A1
:1009340080B400AF00BFBD4680BC704780B584B0B2
:1009440000AF05F099FDF8600F4B7B603B1D07225B
:100954001946F86804F012FE0346FB7297F90B304F
:10096400002B09D1FF21F86804F0AAFEF8600749BA
:10097400F86805F0FDFD03E0F968012003F0AEFB23
:1009840000BF1037BD4680BDC0A80102950900080C
:1009940080B586B000AFF860B9601346FB710121E1
:1009A400B86805F0DFFB0C2003F0F0F938613B690F
:1009B400002B1FD03B6901221A703B69BA685A6048
:1009C4003B6900225A703B6900229A603969B86811
:1009D40005F05AFD0D49B86805F066FD0C49B86884
:1009E40005F0A4FD00220B49B86805F0D7FD0023EB
:1009F400FB7505E03969B86800F065F9FF23FB75FC
:100A040097F9173018461837BD4680BD1D0A0008EF
:100A1400510B0008750B000880B588B000AFF86072
:100A2400B9607A60FB70FB68002B05D1434BC3228D
:100A3400434944480CF0D0FAFB68BB617B68002B47
:100A440016D1BB6903221A70BB699B68002B04D1C1
:100A5400B969B86800F037F907E03B49B86805F0B0
:100A640045FDB969B86800F0DBF80023FB775FE067
:100A740097F90330002B0BD07B68002B05D0BB69A2
:100A840000229A60786804F067F8FB78FB774FE0FF
:100A9400BB691B78012B10D1BB6902221A70BB6998
:100AA4007A689A602849B86805F020FDB969B86881
:100AB40000F030F90023FB773AE0BB691B78022B86
:100AC40015D1BB699B68002B07D1BB697A689A6012
:100AD400B969B86800F01EF906E0BB699B687B61E0
:100AE4007968786904F05AF90023FB7720E0BB6940
:100AF4001B78032B0ED17B681B891946B86804F058
:100B0400D7FEBB6900229A60786804F025F80023B8
:100B1400FB770DE07B681B891946B86804F0C8FEB2
:100B2400BB6900229A60786804F016F80023FB770A
:100B340097F91F3018462037BD4680BD40DD0008B8
:100B44005CDD000868DD0008D50B000880B584B0C2
:100B540000AF78600B46FB707B68FB60FB68002B82
:100B640002D0F86802F0D4FF00BF1037BD4680BD44
:100B740080B584B000AF786039607B68BB60BB68C7
:100B8400002B17D0BB689B68002B08D00F4938682E
:100B940005F0ACFCB968386800F042F807E0BB68BF
:100BA4001B78032B03D1B968386800F08CF8002354
:100BB400FB7304E0386804F0D5FCF323FB7397F966
:100BC4000F3018461037BD4680BD00BFD50B000856
:100BD40080B586B000AFF860B9601346FB80FB684F
:100BE4007B617B6900225A707B699B68002B08D06B
:100BF4000A49B86805F07AFC7969B86800F010F819
:100C040007E07B691B78032B03D17969B86800F08E
:100C14005AF8002318461837BD4680BDD50B000886
:100C240080B586B000AF786039600023FB7536E08C
:100C34003B689B683B613B6959683B695A8901235E
:100C4400786808F059FA0346FB7597F91730002BBA
:100C54001DD13B695B89FB813B691A683B689A60DB
:100C64003B689B68002B04D03B689B68184604F0E3
:100C74001DF8386903F070FF03467B737B7B002B00
:100C8400F7D0FB891946786804F012FE07E097F95B
:100C94001730B3F1FF3F02D13B683A699A6097F984
:100CA4001730002B0BD13B689B68002B07D03B68A7
:100CB4009B685A897B68B3F860309A42B8D900BF00
:100CC4001837BD4680BD80B582B000AF786039600A
:100CD4000021786805F0D8FB0021786805F006FC4F
:100CE4000021786805F0E0FB0021786805F01EFC1F
:100CF40000220021786805F051FC3B68002B02D0EB
:100D0400386802F005FF786804F062FB00BF08371A
:100D1400BD4680BDB0B5A0B000AF786039607B68D7
:100D24005B683B677B681B8BA7F87E3007F1700319
:100D340018460BF067F9B8673B681A787B6F1A702E
:100D44003B685A687B6F5A603B689A687B6F9A600D
:100D540007F10C036422002118460CF0A2F93B6849
:100D64009B6859683B689B681B891A4607F10C030A
:100D740018460CF09EF907F10C031846FFF720FA09
:100D840003461A4607F10C0313441E4A1D46144633
:100D94000FCC28606960AA60EB6003CC28616961AC
:100DA40023782B767B6F9B6807F10C025A603B68B3
:100DB4009B681A893B689B685B89D31A9CB207F1CC
:100DC4000C031846FFF7FCF903469AB27B6F9B6845
:100DD400224492B21A8107F10C031846FFF7F0F986
:100DE40002467B6F9B6892B25A81796F7868FFF7ED
:100DF40017FF3B689B68184603F0AEFE00BF8037C0
:100E0400BD46B0BD90DD0008DFF834D0FFF790FD9B
:100E14000C480D490D4A002302E0D458C450043351
:100E2400C4188C42F9D30A4A0A4C002301E0136027
:100E34000432A242FBD30CF095F9FFF749FB70474B
:100E440000000220000000206C0000209CFB000831
:100E54006C000020988B0020FEE7000080B500AFF6
:100E64000E4B1B680D4A43F4007313600B4B1B6855
:100E74000A4A43F480631360084B1B68074A43F42F
:100E840080731360032000F02BF9002000F008F8B1
:100E9400FFF760FC0023184680BD00BF003C024001
:100EA40080B582B000AF7860124B1A68124B1B7881
:100EB40019464FF47A73B3FBF1F3B2FBF3F318461C
:100EC40000F035F90346002B01D001230EE07B68C6
:100ED4000F2B0AD8002279684FF0FF3000F00BF98D
:100EE400064A7B681360002300E001231846083794
:100EF400BD4680BD00000020080000200400002042
:100F040080B400AF054B1B781A46054B1B6813448D
:100F1400034A136000BFBD4680BC70470800002030
:100F24008C00002080B400AF024B1B681846BD46FD
:100F340080BC70478C00002080B584B000AF78601E
:100F4400FFF7F0FFB8607B68FB60FB68B3F1FF3F1D
:100F540005D00A4B1B781A46FB681344FB6000BF9C
:100F6400FFF7E0FF0246BB68D31AFA689A42F7D843
:100F740000BF00BF1037BD4680BD00BF0800002081
:100F840080B485B000AF78607B6803F00703FB6032
:100F94000C4BDB68BB60BA684FF6FF031340BB60C1
:100FA400FB681A02BB68134343F0BF6343F4003386
:100FB400BB60044ABB68D36000BF1437BD4680BC25
:100FC400704700BF00ED00E080B400AF044BDB6865
:100FD4001B0A03F007031846BD4680BC704700BFD8
:100FE40000ED00E080B483B000AF03463960FB71CC
:100FF40097F90730002B0ADB3B68DAB20C4997F902
:1010040007301201D2B20B4483F800230AE03B6894
:10101400DAB20849FB7903F00F03043B1201D2B2A0
:101024000B441A7600BF0C37BD4680BC704700BF26
:1010340000E100E000ED00E080B489B000AFF860AA
:10104400B9607A60FB6803F00703FB61FB69C3F1D5
:101054000703042B28BF0423BB61FB690433062B5D
:1010640002D9FB69033B00E000237B614FF0FF32B0
:10107400BB6902FA03F3DA43BB681A407B699A40FE
:101084004FF0FF317B6901FA03F3D9437B680B40CE
:10109400134318462437BD4680BC704780B582B0E0
:1010A40000AF78607B68013BB3F1807F01D30123FB
:1010B4000FE00A4A7B68013B53600F214FF0FF3079
:1010C400FFF790FF054B00229A60044B07221A6039
:1010D400002318460837BD4680BD00BF10E000E07D
:1010E40080B582B000AF78607868FFF749FF00BF31
:1010F4000837BD4680BD80B586B000AF0346B960F1
:101104007A60FB7300237B61FFF75EFF78617A6886
:10111400B9687869FFF790FF024697F90F301146D6
:101124001846FFF75FFF00BF1837BD4680BD80B586
:1011340082B000AF78607868FFF7B0FF03461846C6
:101144000837BD4680BD000080B588B000AF786028
:101154000023FB610023FB60A34BBB6100237B6185
:1011640000233B617B68002B01D1012373E17B6881
:1011740093F84430DBB2002B06D17B68002283F85D
:101184004520786802F016F80023BB60974B5B6C2F
:10119400964A43F480435364944B5B6C03F480435A
:1011A400BB60BB68924B5B68914A23F400035360B5
:1011B4008F4B5A687B681B6A8D4913434B607B686D
:1011C4001B6803F580531B687A68126843F00103B7
:1011D40002F580521360FFF7A5FE786111E0FFF776
:1011E400A1FE02467B69D31AB3F5FA7F09D97B685D
:1011F400032283F844207B68002283F845200323DC
:1012040029E17B681B6803F580531B6803F0010325
:10121400002BE4D17B681B681B69FB61FB6923F02D
:101224001C03FB6101F08AFEB861BB69714A9342F9
:1012340008D9BB69704A934204D8FB6943F0080398
:10124400FB611AE0BB696C4A934208D9BB69664AE0
:10125400934204D2FB6943F00C03FB610DE0BB69CC
:10126400614A934203D3BB69644A934204D9FB693C
:1012740043F00403FB6100E000BF7B681B68FA696C
:101284001A614FF400420021786800F08EFB034697
:10129400002B0BD001233B613969786800F044FDD1
:1012A4007B68012283F844200123D4E0FF20FFF768
:1012B40043FE7B685B68002B00F0A280FFF732FEE0
:1012C400786107F10C031A460121786800F005FBE8
:1012D400FFF728FE02467B69D31A41F28832934213
:1012E4000FD901233B613969786800F01DFD7B68E3
:1012F400012283F844207B68002283F845200323DD
:10130400A9E0FB6803F00403002BDAD04FF4805209
:101314000021786800F049FB0346002B0BD0012321
:101324003B613969786800F0FFFC7B68012283F82F
:10133400442001238FE0FFF7F5FD786107F10C03EA
:101344001A460121786800F0C8FAFFF7EBFD02465F
:101354007B69D31A41F2883293420FD901233B614E
:101364003969786800F0E0FC7B68012283F8442046
:101374007B68002283F8452003236CE0FB6803F0BC
:101384002003002BDAD007F10C031A4610217868E9
:1013940000F0A3FA0346002B0BD001233B6139690B
:1013A400786800F0C1FC7B68012283F844200123A3
:1013B40051E0FB6803F00403002B04D07B684FF476
:1013C4000062DA6002E07B680022DA60FB6803F006
:1013D4000203002B03D07B6800229A6032E07B6812
:1013E4004FF480429A602DE0008793030038024056
:1013F40000380140FF2C3101BF0E1602FFE0F50555
:101404007B68DB68DB089AB27B689B685B089BB2ED
:1014140013439BB21A460021786800F0C6FA0346CB
:10142400002B0BD001233B613969786800F07CFC08
:101434007B68012283F8442001230CE040F6FF700E
:10144400FFF77AFD3969786800F06EFC7B68012249
:1014540083F84420002318462037BD4680BD00BFD2
:1014640080B487B000AFF860B9607A603B60002355
:101474007B61FB6893F84530012B01D1022351E0D5
:10148400FB68012283F84520FB68022283F844208C
:10149400FB68BA68DA6200237B6130E07B695B0138
:1014A400BA6813443B613B694FF480121A607B694C
:1014B40040F2F45202FB03F37A6813441A463B6980
:1014C4009A60FB68DB69002B05D13B691B6843F418
:1014D40040023B691A603B68013B7A699A4208D230
:1014E4007B6901335B01BA6813441A463B69DA60CD
:1014F40002E0BA683B69DA607B6901337B617A692F
:101504003B689A42CAD3FB681A68BB6802F58052EA
:101514001361FB68012283F84420FB68002283F8EE
:101524004520002318461C37BD4680BC704780B454
:1015340087B000AFF860B9607A603B6000237B61DC
:10154400FB6893F84530012B01D1022355E0FB6879
:10155400012283F84520FB68022283F84420FB68BB
:10156400BA689A6200237B6134E07B695B01BA68E4
:1015740013443B613B694FF000421A603B6944F2FB
:10158400F4525A607B6940F2F45202FB03F37A6826
:1015940013441A463B699A60FB689B69012B05D189
:1015A4003B695B6823F000423B695A603B68013B3E
:1015B4007A699A4208D27B6901335B01BA681344A1
:1015C4001A463B69DA6002E0BA683B69DA607B6913
:1015D40001337B617A693B689A42C6D3FB681A6817
:1015E400BB6802F58052D360FB68012283F8442073
:1015F400FB68002283F84520002318461C37BD46AB
:1016040080BC704780B487B000AF78603960002335
:101614007B610023FB6000233B617B6893F84530CA
:10162400012B01D10223CCE07B68012283F8452001
:101634007B68022283F844203B68002B09D17B6835
:10164400012283F844207B68002283F8452001238B
:10165400B7E07B68DB6A1B68002B09DA7B6812221F
:1016640083F844207B68002283F845200123A8E006
:101674003B6840F2F452934215D93B68534AA2FBAB
:1016840003239B0A7B613A68504BA3FB02139B0A1A
:1016940040F2F45101FB03F3D31A002B05D07B690C
:1016A40001337B6101E001237B617B69012B1CD148
:1016B4007B68DB6A1A687B68DB6A42F040521A6016
:1016C4007B68DB6A3A68C2F30C025A607B68DB6AA7
:1016D4001A687B68DB6A42F000421A607B68DB6A46
:1016E400DB681A467B68DA624BE000233B6144E026
:1016F4007B68DB6A1A687B68DB6A22F040521A60F6
:101704003B69002B07D17B68DB6A1A687B68DB6A5C
:1017140042F080521A607B68DB6A40F2F4525A60ED
:101724007B69013B3A699A4216D17B68DB6A1A6885
:101734007B68DB6A42F000521A607B69244A03FB2F
:1017440002F23B68134403F2F453FB607B68DB6AE8
:10175400FA68C2F30C025A607B68DB6A1A687B6819
:10176400DB6A42F000421A607B68DB6ADB681A4677
:101774007B68DA623B6901333B613A697B699A426F
:10178400B6D37B681B6803F580535B6903F00403DD
:10179400002B0DD07B681B6803F580531A46042385
:1017A40053617B681B6803F580531A46002353601A
:1017B4007B68012283F844207B68002283F845205B
:1017C400002318461C37BD4680BC70470BB002ACE2
:1017D4000CFAFFFF80B485B000AF78600023FB6093
:1017E4007B6893F84530012B01D1022370E07B68BC
:1017F400012283F845207B68022283F844207B6819
:101804009B6A1B68002B5ADB7B689B6A1B6803F48A
:101814008073002B30D07B689B6B5A1C7B689A6367
:101824007B689B6B012B03D17B689A6A7B681A6384
:101834007B689A6A7B685A637B689B6A1B681B0C8B
:10184400C3F30D03043BFB607B68FA68DA637B68CF
:101854001B6B9A687B681A647B689B6ADB681A4610
:101864007B689A627B68012283F844207B680022AB
:1018740083F8452000232BE07B689B6A1B6803F4F4
:101884000073002B10D07B689A6A7B681A637B68AC
:1018940000225A637B6801229A637B689B6ADB6837
:1018A4001A467B689A620AE07B689B6B5A1C7B68C9
:1018B4009A637B689B6ADB681A467B689A627B68DA
:1018C400012283F844207B68002283F84520012309
:1018D40018461437BD4680BC704780B586B000AF4B
:1018E400F8600B467A607B8100237B6100233B61B7
:1018F400FB6893F84430DBB2822B01D1022350E021
:10190400FB68822283F84420FB681B681B697B61A7
:101914007B6903F01C037B61FB681B8ADB029BB2BF
:101924007A6913437B617B899B0103F4F8637A69C9
:1019340013437B617B6923F002037B617B6943F082
:1019440001037B61FB681B687A691A61FFF7EAFA95
:10195400386115E0FFF7E6FA02463B69D31AB3F59E
:10196400803F09D3FB68012283F84420FB680022EE
:1019740083F84520032314E0FB681B681B697B6123
:101984007B6903F00103002BE4D1FB681B685B69EE
:101994009BB21A467B681A60FB68012283F84420D4
:1019A400002318461837BD4680BD80B586B000AF09
:1019B400F8600B467A607B8100237B6100233B61E6
:1019C400FB6893F84430DBB2422B01D102234EE092
:1019D400FB68422283F84420FB681B681B697B6117
:1019E4007B6903F01C037B61FB681B8ADB029BB2EF
:1019F4007A6913437B617B899B0103F4F8637A69F9
:101A040013437B617B6943F002037B617B6943F091
:101A140001037B617B689AB2FB681B685A61FB68AF
:101A24001B687A691A61FFF77DFA386115E0FFF7E0
:101A340079FA02463B69D31AB3F5803F09D3FB68B0
:101A4400012283F84420FB68002283F84520032305
:101A54000DE0FB681B681B697B617B6903F0010374
:101A6400002BE4D1FB68012283F8442000231846AC
:101A74001837BD4680BD80B582B000AF78607B6802
:101A840093F84530012B01D102231FE07B6801222A
:101A940083F845207B68022283F84420786800F0AC
:101AA4003FFB786800F076FB786800F001FC78680A
:101AB40000F0AAFB786800F0D1FB7B68012283F870
:101AC40044207B68002283F8452000231846083709
:101AD400BD4680BD80B582B000AF78607B6893F866
:101AE4004530012B01D102231FE07B68012283F8DA
:101AF40045207B68022283F84420786800F099FB33
:101B0400786800F0C0FB786800F061FB786800F04A
:101B1400CFFB786800F021FB7B68012283F8442026
:101B24007B68002283F84520002318460837BD4609
:101B340080BD000080B584B000AF786039600023B8
:101B4400FB607B6893F84530012B01D10223E4E06C
:101B54007B68012283F845207B68022283F84420B5
:101B64003B68002B00F0B1807B681B681B68FB603E
:101B7400FA686C4B1340FB603B681A683B685B680F
:101B84001A433B689B681A433B68DB681A437B68CB
:101B94009B681A433B681B691A433B685B691A4399
:101BA4007B68DB681A433B689B691A433B68DB69C3
:101BB4001A433B681B6A1A433B685B6A1A433B68D7
:101BC4009B6A1343FA681343FB607B681B68FA68DB
:101BD4001A607B681B681B68FB600120FFF7ACF987
:101BE4007B681B68FA681A603B68DA6A3B681B6B9F
:101BF4001A433B685B6B1A433B689B6B1A433B6815
:101C0400DB6B1A433B681B6C1A433B685B6C42EA10
:101C140003013B689A6C7B681B680A435A607B68C3
:101C24001B685B68FB600120FFF786F97B681B6813
:101C3400FA685A607B681B683A68D26C9A607B6861
:101C44001B683A68126DDA607B681B689B69FB60ED
:101C5400FA684FF641731340FB603B685B6D1A04EE
:101C64003B689B6D1A433B68DB6D1A433B681B6EF4
:101C74001A433B685B6E1A433B689B6E1343FA68D6
:101C84001343FB607B681B68FA689A617B681B6876
:101C94009B69FB600120FFF74FF97B681B68FA68BA
:101CA4009A613B68D96E3B681A6F7B681B680A436C
:101CB400DA617B681B68DB69FB600120FFF73CF994
:101CC4007B681B68FA68DA611EE07B681B681B6826
:101CD400FB60FB6823F49043FB607B689A687B6835
:101CE400DB681343FA681343FB607B681B68FA687C
:101CF4001A607B681B681B68FB600120FFF71CF9F6
:101D04007B681B68FA681A607B68012283F84420A8
:101D14007B68002283F84520002318461037BD460F
:101D240080BD00BF0F8120FF80B5B0B000AF7860E8
:101D340039600023C7F8BC303B68002B07D07B68B0
:101D44004FF40062DA607B684FF480429A600023AB
:101D5400BB640023FB6400233B6500237B650023F5
:101D6400BB650023FB657B68DB69002B03D14FF463
:101D740080633B6601E000233B664FF400737B669F
:101D84000023BB660023FB6600233B6700237B67BD
:101D94000023BB674023FB670023C7F88030002380
:101DA400C7F884300023C7F888300023C7F88C3084
:101DB4000023C7F890300023C7F894300023C7F8F5
:101DC40098300023C7F89C308023C7F8A030002344
:101DD400C7F8A4300023C7F8A8300023C7F8AC30F4
:101DE4000023C7F8B0300023C7F8B4300023C7F885
:101DF400B8307B681B681B68C7F8BC30D7F8BC20B8
:101E0400AA4B1340C7F8BC30BA6CFB6C1A433B6D49
:101E14001A437B6D1A437B689B681A43BB6D1A4354
:101E2400FB6D1A437B68DB681A433B6E1A437B6E77
:101E34001A43BB6E1A43FB6E1A433B6F1343D7F826
:101E4400BC201343C7F8BC307B681B68D7F8BC20A0
:101E54001A607B681B681B68C7F8BC300120FFF759
:101E64006BF87B681B68D7F8BC201A607A6FBB6F6D
:101E74001A43FB6F1A43D7F880301A43D7F88430DB
:101E84001A43D7F888301A43D7F88C3042EA030152
:101E9400D7F890207B681B680A435A607B681B68EC
:101EA4005B68C7F8BC300120FFF746F87B681B6805
:101EB400D7F8BC205A607B681B68D7F894209A60D6
:101EC4007B681B68D7F89820DA607B681B689B697D
:101ED400C7F8BC30D7F8BC204FF641731340C7F89D
:101EE400BC30D7F89C301A04D7F8A0301A43D7F87E
:101EF400A4301A43D7F8A8301A43D7F8AC301A43A1
:101F0400D7F8B0301343D7F8BC201343C7F8BC301C
:101F14007B681B68D7F8BC209A617B681B689B6947
:101F2400C7F8BC300120FFF707F87B681B68D7F8B7
:101F3400BC209A61D7F8B410D7F8B8207B681B6826
:101F44000A43DA617B681B68DB69C7F8BC3001208F
:101F5400FEF7F2FF7B681B68D7F8BC20DA61002328
:101F6400BB604FF00073FB6000233B614FF4001330
:101F74007B610023BB610023FB6100233B620023E0
:101F84007B620423BB624FF00073FB624FF4803327
:101F94003B634FF480037B634FF40053BB638023A4
:101FA400FB6300233B6400237B647B681B6803F5AD
:101FB40080539B69C7F8BC30D7F8BC203C4B134016
:101FC400C7F8BC30BA68FB681A433B691A437B699B
:101FD4001A43BB691A43FB691A433B6A1A437B6A77
:101FE4001A43BB6A1343D7F8BC201343C7F8BC3069
:101FF4007B681B6803F580531A46D7F8BC3093619D
:102004007B681B6803F580539B69C7F8BC300120CB
:10201400FEF792FF7B681B6803F580531A46D7F8D6
:10202400BC309361FA6A3B6B1A437B6B1A43BB6BFC
:102034001A43FB6B1A433B6C9B001A437B6C1343A0
:102044007A68126843F4000302F5805213607B68D7
:102054001B6803F580531B68C7F8BC300120FEF7EA
:102064006BFF7B681B6803F580531A46D7F8BC30B6
:1020740013607B689B69012B0DD17B681B6803F59A
:102084008053DB697A68126843F4803343F0400379
:1020940002F58052D3617B685B691A460021786837
:1020A40000F008F800BFC037BD4680BD0F8120FF97
:1020B400233FDEF880B487B000AFF860B9607A607F
:1020C4007B6805331B781B027A6804321278134349
:1020D4007B61BA68104B13441A467B6913607B68B2
:1020E40003331B781A067B6802331B781B041A43DC
:1020F4007B6801331B781B0213437A6812781343FD
:102104007B61BA68054B13441A467B69136000BFB0
:102114001C37BD4680BC704740800240448002406A
:1021240080B584B000AF78600023FB607B681B68D7
:102134001A687B681B6842F008021A607B681B6897
:102144001B68FB60012000F0D9F87B681B68FA6803
:102154001A6000BF1037BD4680BD80B584B000AFA3
:1021640078600023FB607B681B681A687B681B68C7
:1021740022F008021A607B681B681B68FB60012060
:1021840000F0BCF87B681B68FA681A6000BF10375F
:10219400BD4680BD80B584B000AF78600023FB608D
:1021A4007B681B681A687B681B6842F004021A602B
:1021B4007B681B681B68FB60012000F09FF87B684C
:1021C4001B68FA681A6000BF1037BD4680BD80B531
:1021D40084B000AF78600023FB607B681B681A68DA
:1021E4007B681B6822F004021A607B681B681B680A
:1021F400FB60012000F082F87B681B68FA681A60B3
:1022040000BF1037BD4680BD80B483B000AF786096
:102214007B681B6803F580539B697A68126843F4F2
:10222400005302F58052936100BF0C37BD4680BC59
:10223400704780B483B000AF78607B681B6803F597
:1022440080539B697A68126823F4005302F5805224
:10225400936100BF0C37BD4680BC704780B483B027
:1022640000AF78607B681B6803F580539B697A68CC
:10227400126843F0020302F58052936100BF0C37E9
:10228400BD4680BC704780B483B000AF78607B6883
:102294001B6803F580539B697A68126823F0020374
:1022A40002F58052936100BF0C37BD4680BC704775
:1022B40080B584B000AF78600023FB607B681B6846
:1022C40003F580539B697A68126843F4801302F51E
:1022D400805293617B681B6803F580539B69FB60A4
:1022E400012000F00BF87B681A68FB6802F5805245
:1022F400936100BF1037BD4680BD000080B485B037
:1023040000AF78600A4B1B680A4AA2FB03235B0AEE
:102314007A6802FB03F3FB6000BFFB685A1EFA6095
:10232400002BF9D100BF00BF1437BD4680BC7047F5
:1023340000000020D34D621080B487B000AF7860F5
:10234400396000237B616FE13B681A6801217B6976
:1023540001FA03F31340FB60FB68002B00F061817A
:102364003B685B6803F00303012B05D03B685B68A3
:1023740003F00303022B30D17B689B683B617B69CC
:102384005B00032202FA03F3DB433A6913403B6127
:102394003B68DA687B695B0002FA03F33A6913432A
:1023A4003B617B683A699A607B685B683B610122A8
:1023B4007B6902FA03F3DB433A6913403B613B68F0
:1023C4005B681B0903F001027B6902FA03F33A69B3
:1023D40013433B617B683A695A603B685B6803F06E
:1023E4000303032B17D07B68DB683B617B695B00CD
:1023F400032202FA03F3DB433A6913403B613B686F
:102404009A687B695B0002FA03F33A6913433B6100
:102414007B683A69DA603B685B6803F00303022B6C
:1024240023D17B69DA087B68083253F822303B6198
:102434007B6903F007039B000F2202FA03F3DB43DB
:102444003A6913403B613B681A697B6903F00703EF
:102454009B0002FA03F33A6913433B617B69DA0890
:102464007B680832396943F822107B681B683B613A
:102474007B695B00032202FA03F3DB433A691340EE
:102484003B613B685B6803F003027B695B0002FA13
:1024940003F33A6913433B617B683A691A603B680A
:1024A4005B6803F44033002B00F0BB800023BB6067
:1024B400644B5B6C634A43F480435364614B5B6CD1
:1024C40003F48043BB60BB685F4A7B699B080233AB
:1024D40052F823303B617B6903F003039B000F2216
:1024E40002FA03F3DB433A6913403B617B68574AC2
:1024F400934231D07B68564A93422BD07B68554A2D
:10250400934225D07B68544A93421FD07B68534A38
:10251400934219D07B68524A934213D07B68514A44
:1025240093420DD07B68504A934207D07B684F4A50
:10253400934201D1082310E009230EE007230CE0A5
:1025440006230AE0052308E0042306E0032304E04D
:10255400022302E0012300E000237A6902F003026F
:10256400920093401A463B6913433B6136497B69A9
:102574009B0802333A6941F823203D4B9B683B6139
:10258400FB68DB433A6913403B613B685B6803F4D7
:102594008013002B03D03A69FB6813433B61344A30
:1025A4003B699360324BDB683B61FB68DB433A6910
:1025B40013403B613B685B6803F40013002B03D0BA
:1025C4003A69FB6813433B61294A3B69D360284B52
:1025D4005B683B61FB68DB433A6913403B613B68E2
:1025E4005B6803F40033002B03D03A69FB681343A0
:1025F4003B611F4A3B6953601D4B1B683B61FB6891
:10260400DB433A6913403B613B685B6803F4803306
:10261400002B03D03A69FB6813433B61144A3B69BE
:1026240013607B6901337B613B681A687B6922FA1A
:1026340003F3002B7FF488AE00BF00BF1C37BD46F8
:1026440080BC70470038024000380140000002405E
:102654000004024000080240000C02400010024046
:102664000014024000180240001C024000200240F6
:10267400003C014080B483B000AF78600B467B809F
:1026840013467B707B78002B03D07A887B689A6131
:1026940003E07B881A047B689A6100BF0C37BD464F
:1026A40080BC704780B58AB000AF78607B68002B2F
:1026B40001D101233BE27B681B6803F00103002B7B
:1026C40050D09E4B9B6803F00C03042B0CD09B4B07
:1026D4009B6803F00C03082B12D1984B5B6803F43E
:1026E4008003B3F5800F0BD1944B1B6803F40033C4
:1026F400002B36D07B685B68002B32D1012316E2B5
:102704007B685A688E4BD2B21A707B685B68002B68
:1027140013D0FEF707FC386208E0FEF703FC02461C
:102724003B6AD31A642B01D9032300E2834B1B6851
:1027340003F40033002BF0D014E0FEF7F3FB38620F
:1027440008E0FEF7EFFB02463B6AD31A642B01D97B
:102754000323ECE1794B1B6803F40033002BF0D125
:1027640000E000BF7B681B6803F00203002B77D0F6
:10277400724B9B6803F00C03002B0BD06F4B9B68D0
:1027840003F00C03082B26D16C4B5B6803F4800325
:10279400002B20D1694B1B6803F00203002B05D0EA
:1027A4007B68DB68012B01D00123C0E1634B1B680C
:1027B40023F0F8027B681B69F821B961B96991FAC1
:1027C400A1F179617969B1FA81F1C9B28B405B49B0
:1027D40013430B6044E07B68DB68002B2AD0594B21
:1027E40001221A60FEF79EFB386208E0FEF79AFBAE
:1027F40002463B6AD31A022B01D9032397E14F4BBC
:102804001B6803F00203002BF0D04C4B1B6823F031
:10281400F8027B681B69F8213961396991FAA1F1E1
:10282400F960F968B1FA81F1C9B28B4043491343A5
:102834000B6015E0434B00221A60FEF773FB38620D
:1028440008E0FEF76FFB02463B6AD31A022B01D95C
:1028540003236CE1394B1B6803F00203002BF0D116
:102864007B681B6803F00803002B30D07B685B692E
:10287400002B16D0344B01221A60FEF753FB38624A
:1028840008E0FEF74FFB02463B6AD31A022B01D93C
:1028940003234CE1294B5B6F03F00203002BF0D0C0
:1028A40015E0294B00221A60FEF73CFB386208E071
:1028B400FEF738FB02463B6AD31A022B01D90323E5
:1028C40035E11E4B5B6F03F00203002BF0D17B68F4
:1028D4001B6803F00403002B00F08780002387F8B3
:1028E4002730164B1B6C03F08053002B10D10023B0
:1028F400BB60124B1B6C114A43F0805313640F4BA3
:102904001B6C03F08053BB60BB68012387F827303E
:102914000E4B1B680D4A43F4807313600B4B1B680A
:1029240003F48073002B22D1084B1B68074A43F43D
:1029340080731360FEF7F6FA386212E00038024042
:102944000238024000004742800E474200700040B7
:10295400FEF7E8FA02463B6AD31A022B01D9032395
:10296400E5E0754B1B6803F48073002BF0D07B68A3
:102974009A68724BD2B21A707B689B68002B15D090
:10298400FEF7D0FA38620AE0FEF7CCFA02463B6A58
:10299400D31A41F28832934201D90323C7E0684B2A
:1029A4001B6F03F00203002BEED014E0FEF7BAFA1B
:1029B40038620AE0FEF7B6FA02463B6AD31A41F2DD
:1029C4008832934201D90323B1E05D4B1B6F03F0BE
:1029D4000203002BEED197F82730012B05D1584B79
:1029E4001B6C574A23F0805313647B689B69002B4C
:1029F40000F09C80524B9B6803F00C03082B61D0C1
:102A04007B689B69022B46D14E4B00221A60FEF76D
:102A140089FA386208E0FEF785FA02463B6AD31A5F
:102A2400642B01D9032382E0454B1B6803F0007338
:102A3400002BF0D1424B5A68434B13407A68D1695A
:102A44007A68126A11437A68526A920111437A6869
:102A5400D26A120611437A68926A5208013A120441
:102A64000A43374913434B60364B01221A60FEF781
:102A740059FA386208E0FEF755FA02463B6AD31A5F
:102A8400642B01D9032352E02D4B1B6803F0007320
:102A9400002BF0D04AE02B4B00221A60FEF742FADA
:102AA400386208E0FEF73EFA02463B6AD31A642B0A
:102AB40001D903233BE0224B1B6803F00073002B76
:102AC400F0D133E07B689B69012B01D101232EE017
:102AD4001B4B5B68FB61FB6903F480027B68DB6969
:102AE4009A4221D1FB6903F03F027B681B6A9A4238
:102AF4001AD1FA6947F6C07313407A68526A920190
:102B0400934211D1FB6903F440327B689B6A5B08F2
:102B1400013B1B049A4207D1FB6903F070627B6896
:102B2400DB6A1B069A4201D0012300E00023184609
:102B34002837BD4680BD00BF007000407038024099
:102B440000380240600047420080BCF080B586B087
:102B540000AF786039607B68002B01D10123D2E09B
:102B64006B4B1B6803F00F033A689A420CD9684B0D
:102B74003A68D2B21A70664B1B6803F00F033A68C6
:102B84009A4201D00123BEE07B681B6803F0020374
:102B9400002B20D07B681B6803F00403002B05D0B6
:102BA4005C4B9B685B4A43F4E05393607B681B680F
:102BB40003F00803002B05D0564B9B68554A43F499
:102BC40060439360534B9B6823F0F0027B689B68DF
:102BD400504913438B607B681B6803F00103002B8F
:102BE40040D07B685B68012B07D14A4B1B6803F418
:102BF4000033002B15D1012385E07B685B68022B31
:102C040007D1444B1B6803F00073002B09D1012347
:102C140079E0404B1B6803F00203002B01D1012330
:102C240071E03C4B9B6823F003027B685B68394985
:102C340013438B60FEF776F978610AE0FEF772F9C8
:102C440002467B69D31A41F28832934201D90323A5
:102C540059E0304B9B6803F00C027B685B689B0077
:102C64009A42EBD12A4B1B6803F00F033A689A424D
:102C74000CD2274B3A68D2B21A70254B1B6803F06A
:102C84000F033A689A4201D001233CE07B681B6839
:102C940003F00403002B08D01E4B9B6823F4E0527E
:102CA4007B68DB681B4913438B607B681B6803F0FC
:102CB4000803002B09D0174B9B6823F460427B6800
:102CC4001B69DB00134913438B6000F02BF80146AA
:102CD400104B9B6803F0F003F0223A613A6992FAD0
:102CE400A2F2FA60FA68B2FA82F2D2B2D3400A4A85
:102CF400D35C21FA03F3094A1360094B1B68184695
:102D0400FEF7CEF8002318461837BD4680BD00BF35
:102D1400003C02400038024064FA00080000002031
:102D2400040000202DE9B04F94B000AF00237B6471
:102D34000023FB6400233B640023BB647C4B9B683F
:102D440003F00C03082B0DD0082B00F2E780002BB6
:102D540002D0042B03D0E1E0764BBB64E1E0764B78
:102D6400BB64DEE0724B5B6803F03F037B64704B33
:102D74005B6803F48003002B65D06D4B5B689B0993
:102D84000022BB63FA63BB6BC3F308033B630023FA
:102D94007B63D7E90C4522462B464FF000004FF0E9
:102DA4000001590141EAD261500102460B46214615
:102DB400511A3961294663EB01037B614FF000022C
:102DC4004FF00003D7E904AB59468B01514643EA5F
:102DD400916351468A01D446B2EB0C08594663EB21
:102DE40001094FF000024FF000034FEAC90343EA20
:102DF40058734FEAC80290469946234618EB0303DA
:102E0400BB602B4649EB0303FB604FF000024FF01D
:102E14000003D7E9024529464B02204629460446C9
:102E240043EAD45301464A02104619467B6C0022F9
:102E3400BB62FA62D7E90A23FDF7CAF902460B46D8
:102E44001346FB645CE03A4B5B689B09002218461E
:102E54001146C0F308033B6200237B62D7E908896B
:102E640042464B464FF000004FF00001590141EA41
:102E7400D261500102460B46C446B2EB0C0A4046EE
:102E840049468C4663EB0C0B4FF000024FF00003F5
:102E94004FEA8B1343EA9A634FEA8A12B2EB0A04AD
:102EA40063EB0B054FF000024FF00003EB0043EA25
:102EB4005473E20014461D460346E3183B600B4678
:102EC40045EB03037B604FF000024FF00003D7E9AA
:102ED400004529468B0220462946044643EA94537A
:102EE40001468A02104619467B6C0022BB61FA61D6
:102EF400D7E90623FDF76CF902460B461346FB643B
:102F04000B4B5B681B0C03F0030301335B003B6456
:102F1400FA6C3B6CB2FBF3F3BB6402E0054BBB649D
:102F240000BFBB6C18465037BD46BDE8B08F00BF2C
:102F3400003802400024F40000127A0080B400AF8C
:102F4400024B1B681846BD4680BC70470000002039
:102F540080B584B004AF8D4BC0221A708B4BA8226D
:102F64005A708A4B01229A70884B0222DA70884B7D
:102F7400FF221A70864BFF225A70854BFF229A70EB
:102F8400834B0022DA70834BC0221A70814BA82233
:102F94005A70804B00229A707E4B0122DA7000F046
:102FA400CDFC7A4B1B781A06784B5B781B041A43CA
:102FB400764B9B781B021343744AD27813431A0648
:102FC400724B1B781906714B5B781B0419436F4BCA
:102FD4009B781B020B436D49C9780B431B0203F416
:102FE4007F031A43694B1B781906684B5B781B04F3
:102FF4001943664B9B781B020B436449C9780B4306
:103004001B0A03F47F431A43604B1B7819065F4B7A
:103014005B781B0419435D4B9B781B020B435B4994
:10302400C9780B431B0E13435B4A1360584B1B7840
:103034001A06574B5B781B041A43554B9B781B02AB
:103044001343534AD27813431A06514B1B7819067B
:103054004F4B5B781B0419434D4B9B781B020B436E
:103064004B49C9780B431B0203F47F031A43484BB3
:103074001B781906464B5B781B041943444B9B7819
:103084001B020B434249C9780B431B0A03F47F43D9
:103094001A433F4B1B7819063D4B5B781B041943BD
:1030A4003B4B9B781B020B433949C9780B431B0EDE
:1030B40013433A4A1360374B1B781A06354B5B7837
:1030C4001B041A43334B9B781B021343314AD278B7
:1030D40013431A062F4B1B7819062E4B5B781B04DF
:1030E40019432C4B9B781B020B432A49C9780B4389
:1030F4001B0203F47F031A43264B1B781906254B46
:103104005B781B041943234B9B781B020B43214917
:10311400C9780B431B0A03F47F431A431D4B1B78E6
:1031240019061C4B5B781B0419431A4B9B781B0232
:103134000B431849C9780B431B0E1343184A1360F9
:10314400184B0293184B019300230093144B134A1A
:103154001149164800F0F2FF144801F0D1F8134B5E
:1031640093F82F309B0803F00103DBB2002B03D04C
:103174000E4801F0D3F802E00C4801F013F90C49B1
:103184000A4801F031F900BFBD4680BDD0000020DF
:10319400D4000020D8000020C4000020C800002073
:1031A400CC000020C1CC000881370008900000202A
:1031B400ED37000880B58EB000AF786007F12403C6
:1031C40000221A605A609A60DA601A617B681B6890
:1031D400554A934240F0A48000233B62534B1B6B3F
:1031E400524A43F000731363504B1B6B03F000739C
:1031F4003B623B6A0023FB614C4B1B6B4B4A43F025
:1032040080631363494B1B6B03F08063FB61FB69B1
:103214000023BB61454B1B6B444A43F000631363BB
:10322400424B1B6B03F00063BB61BB6900237B61F2
:103234003E4B1B6B3D4A43F0040313633B4B1B6B38
:1032440003F004037B617B6900233B61374B1B6BF9
:10325400364A43F001031363344B1B6B03F0010341
:103264003B613B690023FB60304B1B6B2F4A43F0EF
:10327400020313632D4B1B6B03F00203FB60FB681B
:103284000023BB60294B1B6B284A43F040031363A4
:10329400264B1B6B03F04003BB60BB6832237B628D
:1032A4000223BB620023FB6203233B630B237B6388
:1032B40007F1240319461E48FFF73EF886237B6274
:1032C4000223BB620023FB6203233B630B237B6368
:1032D40007F1240319461748FFF72EF84FF400535B
:1032E4007B620223BB620023FB6203233B630B2349
:1032F4007B6307F1240319460F48FFF71DF84FF4C9
:1033040020537B620223BB620023FB6203233B63E3
:103314000B237B6307F1240319460848FFF70CF8D5
:1033240000BF3837BD4680BD0080024000380240EF
:10333400000802400000024000040240001802405D
:1033440080B586B000AF786000233B614D4B4E4A98
:103354001A604C4B01225A604A4B4FF480429A60E7
:10336400484B4FF40062DA60464B00221A82002375
:103374003B7280237B72E123BB720023FB72002328
:103384003B7300237B733F4A07F1080353613D4BB2
:1033940000229A613B4B0022DA613A4B4FF400025F
:1033A4001A623848FDF7D0FE0346FB75FB7D002BFF
:1033B40008D17B6893F82F3043F00403DAB27B68BA
:1033C40083F82F200423314A31492E48FEF748F868
:1033D4000423304A30492B48FEF7A9F87B680622BB
:1033E40083F82820274B5B691A787B6883F82920A7
:1033F400244B5B695A787B6883F82A20214B5B69EC
:103404009A787B6883F82B201E4B5B69DA787B689B
:1034140083F82C201B4B5B691A797B6883F82D2079
:10342400184B5B695A797B6883F82E207B6840F2DD
:10343400DC52DA847B6893F82F3043F00A03DAB263
:103444007B6883F82F200F48FEF715FB07F1100364
:103454001A461D210B48FEF740FA3B6943F00B0363
:103464003B613B691A461D210648FEF79EFA07F1A7
:1034740010031A461D210348FEF72FFA00BF183720
:10348400BD4680BD7C31002000800240AC19002084
:103494005C010020DC010020DC00002080B58AB043
:1034A40000AF786039604B4BDB6A9B68FB6100239B
:1034B4007B6100233B610023FB600023BB60454B21
:1034C400DB6ABB6100233B613B683B625AE0BB693A
:1034D4001B68002B03DAF82387F827305CE03B6A8B
:1034E4005B89FB600023BB602FE0FA693B69D0185D
:1034F4003B6A5A68BB68D1183B69C3F5BE630433A1
:103504001A4609F055FEBB69DB68BB61BB691B68E1
:10351400002B03DAF82387F827303DE0BB699B686A
:10352400FB613A69FB681344A3F2F453FB60BA6885
:103534003B69D31A03F2F453BB607A693B69D31A2B
:1035440003F2F4537B6100233B61FA683B69134443
:1035540040F2F4529342C8D8FA693B69D0183B6AE6
:103564005A68BB681344FA68194609F021FE3A699F
:10357400FB6813443B617A69FB6813447B613B6AD3
:103584001B683B623B6A002BA1D179691148FEF7A5
:1035940039F8002387F827300E4B1B6803F5805356
:1035A4005B6903F02003002B0DD00A4B1B6803F565
:1035B40080531A4620235361064B1B6803F580533E
:1035C4001A460023536097F9273018462837BD461A
:1035D40080BD00BF7C31002080B58CB000AF786026
:1035E4000023FB620023BB620023FB810023FB61F9
:1035F4000023BB6100237B6100233B614E48FEF73F
:10360400E9F80346002B01D0002390E04A4BDB6B22
:10361400FB81494B1B6C7B62FB89002B06D0FB8929
:1036240003221946042000F01FFFF862FB6A002BF6
:103634004BD0414B1B6B3B620023FB61FB6ABB62BB
:1036440040E0BB6A5B897B610023BB6121E0BB6A0C
:103654005A68BB69D0187A6AFB69D118FB69C3F54B
:10366400BE6304331A4609F0A3FD3B6ADB683B6280
:103674003B6A9B687B62FA697B691344A3F2F45347
:103684007B61BA69FB69D31A03F2F453BB6100236B
:10369400FB617A69FB69134440F2F4529342D6D831
:1036A400BB6A5A68BB69D0187A6AFB6913447A69A1
:1036B400194609F07DFDFA697B691344FB61BB6A15
:1036C4001B68BB62BB6A002BBBD11B4B1B6B3B62F1
:1036D40000233B610BE03B6A1B6843F000423B6AFA
:1036E4001A603B6ADB683B623B6901333B61124B06
:1036F4009B6B3A699A42EED30F4B00229A630E4BAE
:103704001B6803F580535B6903F08003002B0DD025
:10371400094B1B6803F580531A4680235361064BFB
:103724001B6803F580531A4600239360FB6A18460E
:103734003037BD4680BD00BF7C31002080B584B0E9
:1037440000AF78607868FFF747FFF860FB68002BEC
:1037540010D07B681B697968F86898470346FB7248
:1037640097F90B30002B06D0F86801F0F5F9002327
:10377400FB6000E000BF1037BD4680BD80B582B05D
:1037840000AF78607B68002B06D10E4B4FF40572B6
:103794000D490E4809F020FC7B68732283F8302021
:1037A4007B68742283F831207B68094A5A617B68FC
:1037B400084A9A617868FFF7C3FD00231846083762
:1037C400BD4680BDACDD0008C8DD0008D8DD0008BA
:1037D40089B10008A134000880B500AFFDF7A2FB51
:1037E4000346184680BD000080B584B000AF786001
:1037F4000023FB600023BB607B6893F82F309B0899
:1038040003F00103DBB2002B5DD0344B5B68002B6B
:103814003FD04FF4805200213048FEF7C6F8FDF740
:1038240081FB0346FB6007F108031A4601212B487C
:10383400FEF753F8FDF776FB0246FB68D31AB3F59F
:103844007A7F28D8BB6803F02003002BEBD007F164
:1038540008031A4610212148FEF73FF8BB6803F01D
:103864000403002B04D01D4B4FF40062DA6002E025
:103874001A4B0022DA60BB6803F00203002B03D06A
:10388400164B00229A6016E0144B4FF480429A6063
:1038940011E000BF00E000BF104BDB68DB089AB208
:1038A4000E4B9B685B089BB213439BB21A460021E4
:1038B4000A48FEF77AF800210848FEF73BF9074862
:1038C400FEF7D9F802E00548FEF704F9786800F03D
:1038D40007F800BF1037BD4680BD00BF7C31002013
:1038E40080B483B000AF786000BF0C37BD4680BCA5
:1038F400704780B483B000AF0346FB80FB885BBA9B
:103904009BB218460C37BD4680BC704780B483B068
:1039140000AF78607B681A067B681B0203F47F03A0
:103924001A437B681B0A03F47F431A437B681B0E0C
:10393400134318460C37BD4680BC704780B582B02F
:1039440000AF00237B6000F0A7F800F037FB00F025
:10395400EFFB06F0A3FE01F077FB06F081FD00BF4C
:103964000837BD4680BD000080B584B000AF7860E4
:10397400404B1B687A689A4206D23F4B40F25D1274
:103984003E493F4809F028FB3E4B1B687A689A423F
:1039940006D3394B4FF4AF723B49394809F01CFB4D
:1039A4007B681B79002B06D0334B40F25F123749FA
:1039B400334809F011FB7B681B88B3F5205F06D9F7
:1039C4002D4B4FF4B17232492D4809F005FB294BB8
:1039D4001B687A6812881344FB607A68FB689A4211
:1039E4001FD0FB681B79002B1BD1264B1B68FA6880
:1039F4009A4216D0274B1B68FA689A4202D1254A8C
:103A04007B681360FB681A887B681A80194B1B68F3
:103A14007A68D11A174B1B68FA68128813448AB261
:103A24005A80144B1B687A6852881344BB60BA6886
:103A34007B689A421AD0BB681B79002B16D1154BB0
:103A44001B687A689A4202D1124ABB6813607B6889
:103A54001A88BB681A80074B1B68BA68D11A054BD1
:103A64001B687A68128813448AB25A8000BF1037E0
:103A7400BD4680BDF059002000DE000830DE00089D
:103A840048DE0008F459002070DE00088CDE0008CF
:103A9400A8DE0008F859002080B483B000AF184BAA
:103AA400033323F003031A46164B1A60154B1B68A5
:103AB4007B607B684FF420521A807B6800225A8016
:103AC4007B6800221A710F4B1B6803F520530E4AC2
:103AD40013600D4B1B6801221A710B4B1B684FF4CA
:103AE40020521A80084B1B684FF420525A80054B11
:103AF4001B68064A136000BF0C37BD4680BC704784
:103B0400DC310020F0590020F4590020F85900203D
:103B140080B584B000AF78607B68002B43D07B68AD
:103B240003F00303002B06D0224B4FF4D672224934
:103B3400224809F051FA224B1B687A689A4204D34E
:103B4400204B1B687A689A4206D31A4B4FF4D772FB
:103B54001D491A4809F040FA194B1B687A689A42C1
:103B640023D3184B1B687A689A421ED27B68083BA1
:103B7400FB60FB681B79002B06D10E4B4FF4E072FF
:103B840012490E4809F028FAFB6800221A71104BFA
:103B94001B68FA689A4202D20D4AFB681360F868FF
:103BA400FFF7E2FE02E000BF00E000BF1037BD46B1
:103BB40080BD00BF00DE0008D4DE000848DE000837
:103BC400F0590020F4590020F8DE000810DF000846
:103BD400F859002080B586B000AF78600B467B8032
:103BE4007B8803339BB223F003037B807B880B2BFE
:103BF40001D80C237B807B88B3F5205F01D9002397
:103C0400B1E05B4B1B687A689A4204D3594B1B683A
:103C14007A689A4206D3584B40F2F31257495848EF
:103C240009F0DAF9524B1B687A689A4204D3514B73
:103C34001B687A689A4201D37B6894E07B68083BEE
:103C44007B614B4B1B687A69D31A7B827B691A8828
:103C54007B8AD31A9BB2083B3B827A883B8A9A427E
:103C640006D9454B40F206224649454809F0B4F9C5
:103C74007A883B8A9A4201D9002374E07A883B8A85
:103C84009A4201D17B686EE0394B1B687A691288CD
:103C94001344FB60FB681B79002B31D1FB681B8844
:103CA4003B817A8A7B8813449BB208337B81364BF1
:103CB4001B68FA689A4205D12D4B1A687B89134414
:103CC400314A13602A4B1A687B891344FB60FB68F2
:103CD40000221A71FB683A891A80FB687A8A5A8032
:103CE4007B697A891A80FB681B88B3F5205F39D019
:103CF4001F4B1B68FA68128813447A895A8031E092
:103D04007B8803F114023B8A9A422BD87A8A7B88F7
:103D140013449BB208337B81154B1A687B89134487
:103D2400FB60194B1B68FA689A4202D2164AFB6878
:103D34001360FB6800221A717B691A88FB681A8079
:103D4400FB687A8A5A807B697A891A80FB681B88A7
:103D5400B3F5205F06D0064B1B68FA68128813443B
:103D64007A895A807B6818461837BD4680BD00BFE3
:103D7400F0590020F459002000DE000824DF000878
:103D840048DE00083CDF0008F859002080B588B000
:103D940000AF0346FB80FB88002B01D10023C7E062
:103DA400FB8803339BB223F00303FB80FB880B2BBC
:103DB40001D80C23FB80FB88B3F5205F01D90023D5
:103DC400B6E05D4B1A685D4B1B68D31AFB83A7E012
:103DD4005A4B1A68FB8B13447B617B691B79002B5C
:103DE40040F098807B691B881A46FB8BD31AA3F199
:103DF4000802FB889A42C0F08D807B691B881A46B2
:103E0400FB8BD31AA3F10802FB8814339A4227D3FD
:103E1400FA8BFB8813449BB208337B82474B1A68A6
:103E24007B8A1344FB60FB6800221A717B691A8841
:103E3400FB681A80FB68FA8B5A807B697A8A1A803D
:103E44007B6901221A71FB681B88B3F5205F0AD0D5
:103E54003A4B1B68FA68128813447A8A5A8002E043
:103E64007B6901221A71344B1B687A699A4227D103
:103E7400314B1B68BB6105E0304B1B68BA69128883
:103E84001344BB61BB691B79002B04D02C4B1B680A
:103E9400BA699A42F0D1284ABB691360264B1A6862
:103EA400274B1B689A420BD0234B1B681B79002BB2
:103EB40006D0244B40F2CF222349244809F08CF841
:103EC400FA887B69134408331D4A1268934206D961
:103ED4001C4B40F2D3221E491C4809F07DF87B6933
:103EE40003F00303002B06D0164B40F2D5221949E8
:103EF400164809F071F87B6903F00303002B06D020
:103F0400104B40F2D7221449104809F065F87B6938
:103F140008330DE0094B1A68FB8B13441B88FB83A1
:103F2400FA8BFB88C3F520539A42FFF451AF002368
:103F340018462037BD4680BDF8590020F0590020AE
:103F4400F459002000DE00085CDF000848DE0008A9
:103F540078DF0008A8DF0008D8DF000880B485B047
:103F640000AF78607B689B6800221A607B685B689E
:103F7400033323F00303BB600023FB6011E07B6881
:103F84009B681A68BB681A607B689B68BA681A6089
:103F94007B681B881A46BB681344BB60FB6801330B
:103FA400FB607B685B881A46FB689342E7DB00BFD3
:103FB40000BF1437BD4680BC7047000080B582B096
:103FC40000AF0023FB8009E0FB88084A52F8233045
:103FD4001846FFF7C3FFFB880133FB80FB88082BDF
:103FE400F2D900BF00BF0837BD4680BDE0FA000823
:103FF40080B584B000AF78607B689B681B68FB6009
:10400400FB68002B12D07B689B68FA6812681A6000
:10401400FB6803F00303002B06D0074B4FF4A47294
:104024000649074808F0D8FFFB6800E0002318465B
:104034001037BD4680BD00BFFCDF00082CE000083F
:1040440050E0000880B584B000AF0346FB71FB79F3
:10405400082B08D90A4B40F287120A490A4808F08B
:10406400BBFF002308E0FB79084A52F823301846C6
:10407400FFF7BEFFF860FB6818461037BD4680BDE9
:10408400FCDF00088CE0000850E00008E0FA0008BB
:1040940080B584B000AF786039603B6803F00303F7
:1040A400002B06D00A4B4FF4CE720A490A4808F096
:1040B40093FF3B68FB607B689B681A68FB681A6027
:1040C4007B689B68FA681A6000BF1037BD4680BDE4
:1040D400FCDF0008ACE0000850E0000880B582B0C6
:1040E40000AF03463960FB71FB79082B07D90C4BF1
:1040F40040F2DB120B490C4808F06EFF0CE03B6801
:10410400002B08D0FB79094A52F823303968184645
:10411400FFF7BEFF00E000BF0837BD4680BD00BF0B
:10412400FCDF0008CCE0000850E00008E0FA0008DA
:1041340080B400AF00BFBD4680BC704780B584B07A
:1041440000AFF860B9607A603B60FB69002B05D171
:10415400214BFB222149224808F03EFFFB68002244
:104164005A60FB6800229A60FB680022DA60FB68F0
:10417400002283F82F20FB68032283F82420FB68A5
:104184000022DA61FB68BA691A62164B1B785A1C62
:10419400D1B2144A1170FA6882F83230FB683A6A74
:1041A4001A613B687A68B968F86800F01FF8FB691F
:1041B400F86898470346002B01D0002307E00A4B18
:1041C4001A68FB681A60084AFB681360FB681846A3
:1041D4001037BD4680BD00BFE8E000081CE10008C0
:1041E40034E10008DC880020D488002080B584B045
:1041F40000AFF860B9607A603B60BB68002B03D005
:10420400BB681B68002B0CD1B968F86800F01AF879
:104214007968F86800F061F83968F86800F04AF8DD
:104224000CE07968F86800F058F83968F86800F02C
:1042340041F8B968F86800F005F800BF00BF10370E
:10424400BD4680BD80B584B000AF786039603B68FE
:10425400002B03D03B681B68FB6002E0144B1B6817
:10426400FB60FA687B6804331B689A421CD07B6845
:10427400043307F10C021146184602F0CDFA7B68AC
:10428400043307F10C021146184606F02DFB3B6877
:10429400002B02D03B681B6800E000237A6853605F
:1042A4000121786800F05DF800BF1037BD4680BD7D
:1042B40044FB000880B483B000AF786039603B6889
:1042C400002B02D03B681B6800E000237A68D360AF
:1042D40000BF0C37BD4680BC704780B483B000AFCC
:1042E400786039603B68002B02D03B681B6800E0B3
:1042F40000237A68936000BF0C37BD4680BC7047CA
:1043040080B483B000AF7860034A7B68136000BF59
:104314000C37BD4680BC7047D888002080B582B079
:1043240000AF78607B6893F82F3003F00103002B13
:1043340013D17B6893F82F3043F00103DAB27B6822
:1043440083F82F207B6893F82F3003F00403002BAD
:1043540003D00321786800F004F800BF0837BD4695
:1043640080BD80B582B000AF78600B46FB70FB78EF
:1043740003F00103002B11D07B6804331B68002B6E
:104384000CD07B6893F82F3003F00803002B05D082
:104394007B6804331946786807F0D8F900BF0837FA
:1043A400BD4680BD80B582B000AF78607B6893F86D
:1043B4002F3003F00103002B12D07B6893F82F30C9
:1043C40023F00103DAB27B6883F82F207B6893F82B
:1043D4002F3003F00803002B02D0786806F07CFD30
:1043E40000BF0837BD4680BD80B483B000AF78609D
:1043F40039607B68002B02D07B683A68DA6100BFC1
:104404000C37BD4680BC704780B582B000AF0E4B00
:1044140000221A700D4B1B687B600FE07B681B6FDA
:10442400002B08D07B681B6F184601F06EFE7B687A
:1044340000221A6705E07B68DB687B607B68002BE1
:10444400ECD10837BD4680BDDD880020EC88002013
:1044540080B400AF034B01221A7000BFBD4680BC7C
:10446400704700BFDD88002080B588B000AF0346E8
:10447400FB710B46BB801346BB71FB79042B1CD824
:1044840001A252F823F000BFA1440008A744000889
:10449400AD440008B3440008B94400083623FB8245
:1044A40014E02223FB8211E00E23FB820EE00023A2
:1044B400FB820BE00023FB8208E0A14B4FF48B72DC
:1044C400A049A14808F088FD00235CE1BB79032BD7
:1044D4000DD0032B00F34681002B00F0D080002B7D
:1044E400C0F24081013B012B00F23C810DE1082028
:1044F400FFF7A8FDF861FB69002B03D1FFF7A8FFC4
:10450400002340E1FB69BA791A73FB6900221A603F
:10451400FB8A1033FA691344033323F003031A4666
:10452400FB695A60FB695B6803F00303002B06D048
:10453400834B4FF494728549834808F04DFDFB6921
:10454400BA881A81FB8A033323F00303C3F5147278
:10455400BB88934228BF13469AB2FB695A81FB6910
:104564005B68FA6952891A44FB6903F518739A4225
:1045740006D9734B4FF497727549734808F02CFDB4
:10458400FB8A033323F00303B3F5147F06D16C4B8A
:1045940040F231126F496C4808F01EFDFB6901229C
:1045A400DA81FB69BB61BB88FA6952899B1A3B615A
:1045B40061E00820FFF746FDF860FB68002B06D198
:1045C400FFF746FFF86900F0C7FA0023DBE0FB6859
:1045D400BA791A73FB6800225A73FB6800221A60C6
:1045E400BB69FA681A603B694FF6FE72934206DDB6
:1045F400534B4FF4A6725849534808F0EDFC3B69FD
:104604009AB2FB681A813B699BB2B3F5147F28BF49
:104614004FF414739AB2FB685A81FB6803F11002D9
:10462400FB685A60FB685B6803F00303002B06D049
:10463400434B40F251124949434808F0CDFCFB6911
:104644005B68FA6952891A44FB6903F518739A4244
:1046540006D93B4B40F253123D493B4808F0BCFCA1
:10466400FB680122DA81FB685B891A463B699B1A65
:104674003B61FB68BB613B69002B9ADC7CE0FB8AF5
:1046840013339BB223F003039AB2BB8803339BB268
:1046940023F003039BB213447B817A89BB880333E1
:1046A40023F003039A4201D200236CE07B8918466D
:1046B400FFF76CFBF861FB69002B01D1002362E07A
:1046C400FB8A1033FA691344033323F003031A46B5
:1046D400FB695A60FB69BA881A81FB691A89FB690C
:1046E4005A81FB6900221A60FB69BA791A73FB6963
:1046F4005B6803F00303002B3DD0114B4FF4BB72F6
:104704001749114808F068FC35E00720FFF79AFCC8
:10471400F861FB69002B01D1002334E0FB6900221E
:104724005A60FB69BA881A81FB691A89FB695A8144
:10473400FB6900221A60FB69BA791A731CE000BF96
:104744005CE100088CE10008A8E10008D0E1000861
:1047540000E2000834E2000868E200087CE2000895
:10476400ACE200080A4B4FF4C6720A490A4808F042
:1047740033FC002307E000BFFB690122DA81FB69F7
:1047840000225A73FB6918462037BD4680BD00BF1E
:104794005CE10008D8E20008A8E1000880B584B014
:1047A40000AF3B600346FB710B46BB801346BB71F5
:1047B400FB79042B1BD801A252F823F0D54700083B
:1047C400DB470008E1470008E7470008ED47000819
:1047D4003623FB8114E02223FB8111E00E23FB81AD
:1047E4000EE00023FB810BE00023FB8108E01D4B5E
:1047F40040F2C5121C491D4808F0EEFB00232DE0D1
:10480400FB89033323F00302BB881A44BB8B9A420F
:1048140001D9002322E03B6800221A60BB69002B07
:1048240008D0FB89033323F00303BA691A443B68B5
:104834005A6002E03B6800225A603B6802225A73C5
:104844003B68BA881A813B681A893B685A813B687D
:10485400BA791A733B680122DA813B68184610372B
:10486400BD4680BD5CE10008F4E20008A8E1000850
:1048740080B586B000AF78600B467B807B68002BE8
:1048840006D14B4B40F2F3124A494B4808F0A4FBC3
:104894007B681B7B032B12D07B681B7B012B0ED008
:1048A4007B681B7B002B0AD07B681B7B022B06D00A
:1048B4003F4B4FF4FA7241493F4808F08DFB7B6847
:1048C4001B897A889A426ED27B887A6812899B1AED
:1048D400FB607B887B827B687B6125E07B695B89ED
:1048E4007A8AD31A7B82FB684FF6FE72934206DD06
:1048F4002F4B40F20B2232492F4808F06DFB7B69A5
:104904001A89FB689BB213449AB27B691A817B694A
:104914001B687B617B69002B06D1254B40F20F227B
:104924002849254808F058FB7B695B897A8A9A42B2
:10493400D4D87B691B7B002B21D17B695B897A8A64
:104944009A421CD07B695B7B03F00203002B16D1D7
:104954007B695A687B69D31A9AB27B8A13449BB2E7
:1049640019467869FFF736F978617B69002B06D11F
:104974000F4B40F21D2214490F4808F02DFB7B69B0
:104984007A8A5A817B695A897B691A817B691B6897
:10499400002B04D07B691B68184600F0DDF87B69A6
:1049A40000221A6000E000BF1837BD4680BD00BF7A
:1049B4005CE1000818E30008A8E1000830E30008FF
:1049C4004CE3000860E3000878E3000880B584B095
:1049D40000AF78600B467B8013467B707B68002BAE
:1049E40006D1464B40F23F224549464808F0F4FAC6
:1049F400B7F90230002B02D07B68002B01D10023D1
:104A040078E0B7F90230002B10DA7B885B42FB8137
:104A14007B685B89FA899A420AD9384B40F247226B
:104A24003949384808F0D8FA012363E07B88FB81D0
:104A34007B681B7BBB817B685B68BB60BB89002B8D
:104A440002D0BB89032B12D17B685A68B7F90230B4
:104A54005B421A447B685A607B685A687B681033EF
:104A64009A4238D27B68BA685A60012342E0BB8913
:104A7400022B02D0BB89012B24D1B7F90230002BC1
:104A84000DDA7B685B89FA899A4208D87B685A6890
:104A9400B7F902305B421A447B685A6011E0B7F9F7
:104AA4000230002B0BDD7B78002B08D07B685A6822
:104AB400B7F902305B421A447B685A6001E0012373
:104AC40018E008E00D4B40F2772210490D4808F039
:104AD40083FA01230EE07B685A897B8813449AB2D7
:104AE4007B685A817B681A897B8813449AB27B68F5
:104AF4001A81002318461037BD4680BD5CE10008CA
:104B040094E30008A8E10008A0E30008C0E300085B
:104B140080B582B000AF78600B467B80B7F9023075
:104B2400002219467868FFF751FF034618460837F4
:104B3400BD4680BD80B582B000AF78600B467B80F7
:104B4400B7F90230012219467868FFF73FFF0346A0
:104B540018460837BD4680BD80B586B000AF786082
:104B64007B68002B0BD17B68002B06D13E4B40F2B7
:104B7400D2223E493E4808F02FFA002370E07B68B9
:104B84001B7B002B12D07B681B7B012B0ED07B6818
:104B94001B7B022B0AD07B681B7B032B06D0324B7A
:104BA4004FF437723349324808F016FA0023FB7584
:104BB40052E07B68DB89002B06D12B4B40F2EB22C1
:104BC4002D492B4808F008FA7B68DB89013B9AB22F
:104BD4007B68DA817B68DB89BB82BB8A002B39D195
:104BE4007B681B683B617B681B7BFB817B685B7B11
:104BF40003F00203002B11D07B68BB60BB681B6908
:104C0400002B06D1184B40F2F9221C49184808F031
:104C1400E3F9BB681B697868984715E0FB89032BA7
:104C240004D179680820FFF759FA0DE0FB89012BBC
:104C340002D0FB89022B04D179680720FFF74EFAD2
:104C440002E07868FEF764FFFB7D0133FB753B6986
:104C54007B6001E000237B607B68002BA9D1FB7D96
:104C640018461837BD4680BD5CE1000894E300088F
:104C7400A8E10008D0E30008E8E3000800E4000825
:104C840080B485B000AF78600023FB8105E0FB8928
:104C94000133FB817B681B687B607B68002BF6D14A
:104CA400FB8918461437BD4680BC704780B582B076
:104CB40000AF78607B68002B10D07B68DB89013300
:104CC4009AB27B68DA817B68DB89002B06D1054BBD
:104CD40040F239320449054808F07EF900BF08372C
:104CE400BD4680BD5CE1000824E40008A8E100089A
:104CF40080B584B000AF786039607B68002B02D047
:104D04003B68002B07D1204B4FF453721F492048B6
:104D140008F062F934E07B68FB600AE0FB681A89FA
:104D24003B681B8913449AB2FB681A81FB681B68B1
:104D3400FB60FB681B68002BF0D1FB681A89FB68D9
:104D44005B899A4206D0104B40F255321149104803
:104D540008F042F9FB681B68002B06D00A4B40F2AE
:104D640056320D490A4808F037F9FB681A893B683E
:104D74001B8913449AB2FB681A81FB683A681A606B
:104D84001037BD4680BD00BF5CE1000838E4000870
:104D9400A8E1000870E40008A0E4000880B582B02F
:104DA40000AF7860396039687868FFF7A1FF386828
:104DB400FFF77CFF00BF0837BD4680BD80B584B0D7
:104DC40000AF786039600023FB810023BB817B68DE
:104DD400002B08D03B68002B05D07B681A893B6800
:104DE4001B899A4209D2544B4FF46F725349544869
:104DF40008F0F2F86FF00F0399E07B685B891A46BC
:104E0400FB89D21A3B685B891946BB89CB1A9A4243
:104E140005DB3B685A89BB89D31A7B8104E07B6834
:104E24005A89FB89D31A7B817B685A68FB89D0181D
:104E34003B685A68BB8913447A89194608F0B8F963
:104E4400FA897B891344FB81BA897B891344BB812A
:104E54007B685B89FA899A4206D9374B40F2CD3296
:104E64003849374808F0B8F83B685B89BA899A42F0
:104E740006D9314B40F2CE323349314808F0ACF810
:104E84003B685B89BA899A4204D30023BB813B689F
:104E94001B683B607B685B89FA899A4214D10023C2
:104EA400FB817B681B687B607B68002B0CD13B68B3
:104EB400002B09D0204B4FF476722449204808F087
:104EC4008BF86FF00F0332E03B68002B13D03B6884
:104ED4005A893B681B899A420DD13B681B68002B99
:104EE40009D0154B40F2DD321949154808F074F821
:104EF4006FF005031BE07B68002B13D07B685A8995
:104F04007B681B899A420DD17B681B68002B09D0F2
:104F1400094B40F2E2320E49094808F05DF86FF09F
:104F2400050304E03B68002B7FF467AF00231846B9
:104F34001037BD4680BD00BF5CE10008ECE400080A
:104F4400A8E100081CE5000834E5000850E5000865
:104F540060E5000880B588B000AFF860B96011461C
:104F64001A460B46FB801346BB800023FB82FB687A
:104F7400002B08D1304B40F2FE323049304808F063
:104F84002BF8002354E0BB68002B08D12A4B40F2D5
:104F9400FF322C492A4808F01FF8002348E0002378
:104FA4007B83FB68002B02D0BB68002B01D100235C
:104FB4003EE0FB68FB6134E0BB88002B0AD0FB6950
:104FC4005B89BA889A4205D3FB695B89BA88D31A8C
:104FD400BB8023E0FB695A89BB88D31A3B833A8B95
:104FE400FB889A4201D9FB883B837B8BBA68D01833
:104FF400FB695A68BB8813443A8B194608F0D8F801
:10500400FA8A3B8B1344FB827A8B3B8B13447B835E
:10501400FA883B8BD31AFB800023BB80FB691B6897
:10502400FB61FB88002B02D0FB69002BC4D1FB8AF7
:1050340018462037BD4680BD5CE100088CE50008B9
:10504400A8E10008ACE5000880B400AF00BFBD468D
:1050540080BC704780B500AF00F08AFF074B1B7817
:105064000133DAB2054B1A70044B1B7803F00103C9
:10507400002B01D000F0BAFC00BF80BDF5880020F1
:1050840080B485B000AF786039607B68FB600AE06B
:10509400FB689B6F3A689A4202D1FB6800229A67C8
:1050A400FB68DB68FB60FB68002BF1D100BF00BF2D
:1050B4001437BD4680BC704780B584B000AF7860BB
:1050C4007B68002B05D1134BC0221349134807F00A
:1050D40083FF7B681B7D012B05D00E4BC122104939
:1050E4000E4807F079FF0123FB600BE00D4AFB68D3
:1050F40052F823301B6879681846FFF7C1FFFB6834
:105104000133FB60FB68032BF0D900BF00BF1037ED
:10511400BD4680BDE0E6000810E700081CE7000873
:1051240044E700081CFB0008B0B586B002AF786005
:105134000B46FB70FB78002B75D07B681B7D042B22
:1051440003D07B681B7D072B6DD17B685B6F002BC5
:1051540004D17B681B8DB3F5066F64D07B689B7E9E
:1051640003F01003002B06D15B4B40F20F125B4996
:105174005B4807F031FF7B68D86C7B68596A7C68B0
:105184007B681D1D7B68DB8A7A68128B0192009311
:105194002B46224604F0E6FE786801F023FA514BD0
:1051A4001B687A689A4205D14E4B1B68DB684D4AEE
:1051B400136013E04B4B1B68FB600CE0FB68DB687F
:1051C4007A689A4204D17B68DA68FB68DA6005E0A1
:1051D400FB68DB68FB60FB68002BEFD17B68002277
:1051E400DA60414B01221A707B681B7D042B0CD1C1
:1051F4007B680A221A753D4B1A687B68DA603B4A61
:105204007B68136005F0F6F80BE0394B1B687A688D
:105214009A4202D103F046FD03E079680120FEF7CB
:105224005DFF002353E07B681B7D022B3DD0022BE6
:1052340047DC002B02D0012B2BD042E07B68DB8AB9
:10524400002B21D02B4B1B687A689A4205D1294B3D
:105254001B68DB68274A136013E0264B1B68BB609E
:105264000CE0BB68DB687A689A4204D17B68DA6830
:10527400BB68DA6005E0BB68DB68BB60BB68002B19
:10528400EFD17B680022DA6079680120FEF726FFFF
:105294001CE07868FFF710FF7968174801F0E4F91B
:1052A40079680220FEF71AFF10E079680D4801F0D2
:1052B400DBF90D4B01221A7079680120FEF70EFF0D
:1052C40004E0786800F01AF8034600E0002318466A
:1052D4001037BD46B0BD00BFE0E600085CE700083B
:1052E4001CE70008EC880020F4880020F0880020E7
:1052F4002C890020E4880020E888002080B584B050
:1053040000AF78607B68002B06D12E4B40F24D1223
:105314002D492E4807F060FE7B681B7D072B20D0AB
:10532400072B2BDC032B02D0042B0DD026E078684E
:1053340003F042FD0346FB7397F90F30002B1FD196
:105344007B6805221A751BE0786803F035FD034677
:10535400FB7397F90F30002B14D17B6805221A7563
:1053640010E0786803F028FD0346FB7397F90F30CB
:10537400002B09D17B6809221A7505E000231CE083
:1053840000BF02E000BF00E000BF97F90F30002B20
:1053940003D1786804F062FB0DE097F90F30B3F1A4
:1053A400FF3F08D17B689B7E43F00803DAB27B6839
:1053B4009A76002301E097F90F3018461037BD465E
:1053C40080BD00BFE0E6000810E700081CE7000805
:1053D40080B582B000AF78607B681B7D012B06D05E
:1053E4007B689B7E43F01003DAB27B689A760121D6
:1053F4007868FFF799FE034618460837BD4680BD16
:1054040080B58CB002AF786039607B681B7D012B5E
:1054140006D14D4B40F2DF124C494D4807F0DCFDFC
:105424007B681B7D0A2B08D179684A4801F01CF976
:1054340079680120FEF752FE81E000237B6200239D
:105444007B847B68DB6CBB617B685B6A7B617B68AC
:10545400D3F88C303B617B681B69FB607B681B7DE8
:10546400002B26D17B68DB8A002B2ED03A4B1B689D
:105474007A689A4205D1384B1B68DB68364A136058
:1054840013E0354B1B68FB610CE0FB69DB687A6851
:105494009A4204D17B68DA68FB69DA6005E0FB694B
:1054A400DB68FB61FB69002BEFD17B680022DA60CB
:1054B4000BE03B687B627B68DB8A7B8479682748E6
:1054C40001F0D2F8264B01221A707B68DB6E002BA8
:1054D40004D07B68DB6E184600F017FE7B689B6E79
:1054E400002B04D07B689B6E184600F00EFE7B6890
:1054F4001B6F002B04D07B681B6F184600F005FE61
:105504007B6A002B0CD07A687B68191D7B681B8B27
:1055140001937B8C00930B467969B86904F022FDF2
:105524007B681B7DFB7279680120FEF7D7FD3B6920
:10553400002B04D03B696FF00C01F868984700BF5A
:105544002837BD4680BD00BFE0E6000878E70008C4
:105554001CE70008F0880020E4880020EC88002084
:10556400F488002080B582B000AF786001217868AB
:10557400FFF746FF00BF0837BD4680BD80B588B041
:1055840000AFF860B9601346FB8004237B61BB68FD
:10559400002B01D13C4BBB60FB68002B02D0BB68E5
:1055A400002B02D16FF005036AE0FB681B7D002B22
:1055B40009D0364B4FF411723549364807F00CFDCB
:1055C4006FF005035CE0FB88002B09D100F0CAF9F9
:1055D4000346FB80FB88002B35D16FF001034FE0BD
:1055E4000023FB612BE02C4AFB6952F823301B6833
:1055F400BB611EE0BB69DB8AFA889A4216D1BB699B
:10560400002B10D0BB691B68002B0CD0BB68002B8F
:1056140009D0BB681B68002B05D0BB691A68BB683E
:105624001B689A4202D16FF0070329E0BB69DB686B
:10563400BB61BB69002BDDD1FB690133FB61FA69F6
:105644007B699A42CFDBBB68002B0CD0BB681B681C
:10565400002B08D0BB68002B02D0BB681B6800E09D
:105664000023FA681360FB68FA88DA820B4B1A6825
:10567400FB68DA60094AFB68136004F0BBFE002390
:1056840018462037BD4680BD44FB0008E0E600080C
:10569400ACE700081CE700081CFB0008E4880020B5
:1056A40080B584B000AFF860B9601346FB71B86888
:1056B400FFF758FF6FF00C0318461037BD4680BD46
:1056C40080B582B000AF78600B46FB70FB78002297
:1056D4001946786800F006F8034618460837BD46B0
:1056E40080BD000080B588B000AFF8600B467A60DA
:1056F400FB720023FB61FB681B7D002B09D03F4B31
:105704004FF42D723E493F4807F066FCF123FB76C7
:1057140069E0FB681B7D012B04D1FB68FB61F72367
:10572400FB7660E00220FEF78DFCF861FB69002B3C
:1057340002D1FF23FB7656E0FB681A69FB691A6104
:10574400FB68DA8AFB69DA82FB6901221A75FB6855
:105754005A7DFB695A75FB681A7AFB691A72FB68F1
:105764009A7AFB699A72FB685A7AFB695A72FB68E7
:105774001A68FB691A60FB68DB8A002B21D0224B74
:105784001B68FA689A4205D11F4B1B68DB681E4AE6
:10579400136013E01C4B1B687B610CE07B69DB68C6
:1057A400FA689A4204D1FB68DA687B69DA6005E03A
:1057B4007B69DB687B617B69002BEFD1FB6800228E
:1057C400DA60F9680120FEF789FCFB690F4A9A61E7
:1057D4000F4B1A68FB69DA600D4AFB69136004F029
:1057E40009FE0023FB767B68002B02D07B68FA7EDF
:1057F4001A70FB6918462037BD4680BDE0E60008F4
:10580400D4E700081CE70008E4880020A556000837
:10581400E888002080B584B000AF78607B685B6A5C
:105824007A68128D1344FB607B68DB6A7A68528E57
:10583400B2F5866F28BF4FF4866292B21344FA68B9
:10584400D31A002B08DB7B681A8D7B685A857B682A
:10585400DB6AFA68D31A20E07B685A6A7B68DB6AE1
:10586400D31A002B03DD7B6800225A8514E07B6881
:10587400DA6A7B685B6AD31ABB60BB68B3F5803FA6
:1058840006D3084B4FF442720749084807F0A4FBBB
:10589400BB689AB27B685A85002318461037BD4608
:1058A40080BD00BFE0E60008F8E700081CE7000838
:1058B40080B584B000AF78600B467B807B681B7D2D
:1058C400012B06D1234B40F21F322349234807F012
:1058D40083FB7B681A8D7B8813449AB27B681A8594
:1058E4007B681B8DB3F5066F04D97B684FF40662A1
:1058F4001A8517E07B681B8D002B13D17B681B7DF9
:10590400072B03D07B681B7D092B04D17B684FF4E4
:1059140006621A8506E00F4B40F22D3210490F48FB
:1059240007F05AFB7868FFF775FF0346FB60FB68D6
:10593400B3F5067F09DB7B689B7E43F00203DAB292
:105944007B689A76786804F089F800BF1037BD4602
:1059540080BD00BFE0E6000814E800081CE700086A
:105964003CE8000880B483B000AF0023BB801D4B2B
:105974001B885A1C91B21B4A11804FF6FF72934246
:1059840003D1184B4FF440421A800023FB711EE0F0
:10599400FB79154A52F823301B683B6011E03B68E1
:1059A400DA8A104B1B889A4208D1BB880133BB802A
:1059B400BB88B3F5804FDAD300230DE03B68DB6886
:1059C4003B603B68002BEAD1FB790133FB71FB7927
:1059D400032BDDD9034B1B8818460C37BD4680BC0E
:1059E400704700BF0A0000201CFB0008B0B58CB053
:1059F40002AF00237B77974B1B680133954A1360F2
:105A0400954B1B780133DAB2934B1A7000233B6237
:105A1400924B1B687B6227E27B6A1B7D002B06D1BD
:105A24008F4B4FF47C728F498F4807F0D5FA7B6A0D
:105A34001B7D012B06D18A4B40F2F1328B498A48F7
:105A440007F0CAFA7B6A1B7D0A2B06D1844B40F20D
:105A5400F2328749844807F0BFFA7B6A5A7F7E4B4B
:105A64001B789A4203D17B6ADB687B62FCE17A4B48
:105A74001A787B6A5A770023FB770023BB777B6A0B
:105A84001B7D022B08D17B6A93F84230052B03D986
:105A9400FB7F0133FB77A2E07B6A93F842300B2B48
:105AA40003D9FB7F0133FB7799E07B6A93F8953048
:105AB400002B32D07B6A93F89530013B6D4AD35C5E
:105AC400FB747B6A93F89430FA7C9A4207D97B6A18
