:020000040800F2
:10000000000002202D09000891070008970700084A
:100010009D070008A3070008A907000800000000CA
:10002000000000000000000000000000AF07000812
:10003000BB07000800000000C7070008D30700083E
:100040007D0900087D0900087D0900087D09000878
:100050007D0900087D0900087D0900087D09000868
:100060007D0900087D0900087D0900087D09000858
:100070007D0900087D0900087D0900087D09000848
:100080007D0900087D0900087D0900087D09000838
:100090007D0900087D0900087D0900087D09000828
:1000A0007D0900087D0900087D0900087D09000818
:1000B0007D0900087D0900087D0900087D09000808
:1000C0007D0900087D0900087D0900087D090008F8
:1000D0007D0900087D0900087D0900087D090008E8
:1000E0007D0900087D0900087D0900087D090008D8
:1000F0007D0900087D0900087D0900087D090008C8
:100100007D0900087D0900087D0900087D090008B7
:100110007D0900087D0900087D0900087D090008A7
:100120007D0900087D0900087D0900087D09000897
:100130007D0900087D0900087D0900087D09000887
:100140007D0900087D0900087D0900087D09000877
:100150007D0900087D0900087D0900087D09000867
:100160007D0900087D0900087D0900087D09000857
:100170007D0900087D0900087D09000800000000D5
:040180007D090008ED
:1001840010B5054C237833B9044B13B10448AFF3CD
:1001940000800123237010BD6800002000000000CF
:1001A4006C7E000808B5034B1BB103490348AFF349
:1001B400008008BD000000006C0000206C7E000878
:1001C40053B94AB9002908BF00281CBF4FF0FF31BA
:1001D4004FF0FF3000F072B9ADF1080C6DE904CEB8
:1001E40000F006F8DDF804E0DDE9022304B070470E
:1001F4002DE9F047089E0D4604468E46002B4CD14F
:100204008A42944667D9B2FA82F353B102FA03FCE4
:10021400C3F1200201FA03FE20FA02F242EA0E0EB2
:100224009C404FEA1C47BEFBF7F11FFA8CF507FB15
:1002340011EE01FB05F0220C42EA0E4290420AD96B
:100244001CEB020201F1FF3E80F01981904240F262
:10025400168102396244121AB2FBF7F007FB10222E
:1002640000FB05F5A4B244EA0244A5420AD91CEBFA
:10027400040400F1FF3280F00481A54240F20181C0
:100284006444023840EA01400021641B1EB1DC4092
:100294000023C6E90043BDE8F0878B4208D9002E4D
:1002A40000F0EA800021C6E900050846BDE8F087B1
:1002B400B3FA83F1002948D1AB4202D3824200F25F
:1002C400F880841A65EB030201209646002EE2D0E2
:1002D400C6E9004EDFE702B9FFDEB2FA82F3002B73
:1002E40040F08E80881A0121170C1FFA82FEB0FBA1
:1002F400F7F507FB1500220C42EA00420EFB05F05D
:10030400904208D91CEB020205F1FF3802D2904258
:1003140000F2CC804546121AB2FBF7F007FB10221C
:100324000EFB00FEA4B244EA0244A64508D91CEB25
:10033400040400F1FF3202D2A64500F2B480104654
:10034400A4EB0E0440EA0540A0E7C1F120078B406E
:1003540022FA07FC4CEA030C25FA07FA4FEA1C4977
:10036400BAFBF9F88D4020FA07F309FB18AA1FFA23
:100374008CFE2B4300FA01F508FB0EF01C0C44EA3A
:100384000A44A04202FA01F20BD91CEB040408F15E
:10039400FF3A80F08680A04240F28380A8F10208F0
:1003A4006444241A98B2B4FBF9F309FB134403FB25
:1003B4000EFE40EA0444A64508D91CEB040403F1EC
:1003C400FF306AD2A64568D9023B644443EA084038
:1003D400A0FB0293A4EB0E049C42C8469E4654D351
:1003E40051D0002E67D0B5EB080364EB0E04CB406C
:1003F40004FA07F71F43CC40C6E9007400214AE71A
:1004040002FA03FCC3F12000C1409D4024FA00F02D
:100414004FEA1C472843B1FBF7F507FB15111FFAF8
:100424008CFE020C42EA014205FB0EF1914204FAF1
:1004340003F408D91CEB020205F1FF382FD29142D4
:100444002DD9023D6244521AB2FBF7F107FB112287
:1004540080B240EA024001FB0EF2824208D91CEB52
:10046400000001F1FF3816D2824214D902396044E7
:10047400801A41EA05413AE7314630460BE77146B6
:10048400E9E61046FEE64D45ABD2B9EB020863EB54
:100494000C0E0138A5E74146EAE7034696E74546D0
:1004A400D1E7D0467DE76444023849E7023D62441F
:1004B40031E708460AE73146EDE600BF704700BF62
:1004C40080B500AF00F05AFA00F00CF800F052F8D2
:1004D40002F0CEFA024802F0C1FE04F03DFBF9E757
:1004E4008C00002080B592B000AF07F118033022D1
:1004F4000021184606F089FE3B1D00221A605A604E
:100504009A60DA601A610223BB6101237B621023C3
:10051400BB6202233B6300237B630D23BB63C323C2
:10052400FB6302233B6405237B6407F1180318462D
:1005340001F048FE0346002B01D000F0FBF80F2326
:100544007B600223BB600023FB604FF4A0533B613C
:100554004FF480537B613B1D0321184602F086F85B
:100564000346002B01D000F0E5F800BF4837BD4634
:1005740080BD000080B58CB000AF07F11C030022E1
:100584001A605A609A60DA601A610023BB61634B97
:100594001B6B624A43F004031363604B1B6B03F051
:1005A4000403BB61BB6900237B615C4B1B6B5B4A2F
:1005B40043F080031363594B1B6B03F080037B618F
:1005C4007B6900233B61554B1B6B544A43F0010389
:1005D4001363524B1B6B03F001033B613B69002324
:1005E400FB604E4B1B6B4D4A43F0020313634B4BB2
:1005F4001B6B03F00203FB60FB680023BB60474BEB
:100604001B6B464A43F008031363444B1B6B03F014
:100614000803BB60BB6800237B60404B1B6B3F4AF5
:1006240043F0400313633D4B1B6B03F040037B60BB
:100634007B68002244F28101394801F0ABFD0022BD
:100644004021384801F0A6FD4FF40053FB614FF4FC
:1006540088133B6200237B6207F11C03194632486E
:1006640001F0FAFB44F28103FB6101233B620023A6
:100674007B620023BB6207F11C031946284801F082
:10068400EBFB4FF44073FB6102233B6200237B626C
:100694000323BB620723FB6207F11C0319462348AB
:1006A40001F0DAFB4023FB6101233B6200237B6200
:1006B4000023BB6207F11C0319461A4801F0CCFB66
:1006C4008023FB6100233B6200237B6207F11C0350
:1006D4001946144801F0C0FB4FF4E853FB610223B0
:1006E4003B6200237B620323BB620A23FB6207F1A4
:1006F4001C0319460E4801F0AFFB4FF40073FB6175
:1007040000233B6200237B6207F11C03194608485F
:1007140001F0A2FB00BF3037BD4680BD0038024067
:10072400000402400018024000080240000C02408D
:100734000000024080B400AF72B600BFFEE70000C4
:1007440080B483B000AF00237B600F4B5B6C0E4A18
:1007540043F4804353640C4B5B6C03F480437B6031
:100764007B6800233B60084B1B6C074A43F08053B3
:100774001364054B1B6C03F080533B603B6800BF64
:100784000C37BD4680BC70470038024080B400AFCF
:10079400FEE780B400AFFEE780B400AFFEE780B4AC
:1007A40000AFFEE780B400AFFEE780B400AF00BF47
:1007B400BD4680BC704780B400AF00BFBD4680BC5E
:1007C400704780B400AF00BFBD4680BC704780B5A1
:1007D40000AF00F025F900BF80BD80B586B000AF42
:1007E400F860B9607A6000237B610AE0AFF30080AF
:1007F4000146BB685A1CBA60CAB21A707B690133DD
:100804007B617A697B689A42F0DB7B68184618370B
:10081400BD4680BD80B586B000AFF860B9607A602F
:1008240000237B6109E0BB685A1CBA601B78184638
:10083400AFF300807B6901337B617A697B689A42FC
:10084400F1DB7B6818461837BD4680BD80B483B0A1
:1008540000AF78604FF0FF3318460C37BD4680BCBC
:10086400704780B483B000AF786039603B684FF460
:1008740000525A60002318460C37BD4680BC7047AE
:1008840080B483B000AF7860012318460C37BD46AE
:1008940080BC704780B485B000AFF860B9607A60FE
:1008A400002318461437BD4680BC704780B487B017
:1008B40000AF7860144A154BD31A7B617B693B61A6
:1008C400134B1B68002B02D1114B124A1A60104BB8
:1008D4001A687B6813443A699A4205D20E4B0C227B
:1008E4001A604FF0FF3309E0094B1B68FB60084BAB
:1008F4001A687B681344064A1360FB6818461C3761
:10090400BD4680BC704700BF000002200004000008
:1009140084000020A88500209485002080B400AFC6
:1009240000BFBD4680BC7047DFF834D0FFF7F6FF48
:100934000C480D490D4A002302E0D458C450043336
:10094400C4188C42F9D30A4A0A4C002301E013600C
:100954000432A242FBD306F0A7FCFFF7B1FD7047B7
:10096400000002200000002068000020208F000802
:1009740068000020A4850020FEE7000080B500AFD9
:100984000E4B1B680D4A43F4007313600B4B1B683A
:100994000A4A43F480631360084B1B68074A43F414
:1009A40080731360032000F02BF9002000F008F896
:1009B400FFF7C6FE0023184680BD00BF003C02407E
:1009C40080B582B000AF7860124B1A68124B1B7866
:1009D40019464FF47A73B3FBF1F3B2FBF3F3184601
:1009E40000F035F90346002B01D001230EE07B68AB
:1009F4000F2B0AD8002279684FF0FF3000F00BF972
:100A0400064A7B681360002300E001231846083778
:100A1400BD4680BD00000020080000200400002026
:100A240080B400AF054B1B781A46054B1B68134472
:100A3400034A136000BFBD4680BC70470800002015
:100A44008800002080B400AF024B1B681846BD46E6
:100A540080BC70478800002080B584B000AF786007
:100A6400FFF7F0FFB8607B68FB60FB68B3F1FF3F02
:100A740005D00A4B1B781A46FB681344FB6000BF81
:100A8400FFF7E0FF0246BB68D31AFA689A42F7D828
:100A940000BF00BF1037BD4680BD00BF0800002066
:100AA40080B485B000AF78607B6803F00703FB6017
:100AB4000C4BDB68BB60BA684FF6FF031340BB60A6
:100AC400FB681A02BB68134343F0BF6343F400336B
:100AD400BB60044ABB68D36000BF1437BD4680BC0A
:100AE400704700BF00ED00E080B400AF044BDB684A
:100AF4001B0A03F007031846BD4680BC704700BFBD
:100B040000ED00E080B483B000AF03463960FB71B0
:100B140097F90730002B0ADB3B68DAB20C4997F9E6
:100B240007301201D2B20B4483F800230AE03B6879
:100B3400DAB20849FB7903F00F03043B1201D2B285
:100B44000B441A7600BF0C37BD4680BC704700BF0B
:100B540000E100E000ED00E080B489B000AFF8608F
:100B6400B9607A60FB6803F00703FB61FB69C3F1BA
:100B74000703042B28BF0423BB61FB690433062B42
:100B840002D9FB69033B00E000237B614FF0FF3295
:100B9400BB6902FA03F3DA43BB681A407B699A40E3
:100BA4004FF0FF317B6901FA03F3D9437B680B40B3
:100BB400134318462437BD4680BC704780B582B0C5
:100BC40000AF78607B68013BB3F1807F01D30123E0
:100BD4000FE00A4A7B68013B53600F214FF0FF305E
:100BE400FFF790FF054B00229A60044B07221A601E
:100BF400002318460837BD4680BD00BF10E000E062
:100C040080B582B000AF78607868FFF749FF00BF15
:100C14000837BD4680BD80B586B000AF0346B960D5
:100C24007A60FB7300237B61FFF75EFF78617A686B
:100C3400B9687869FFF790FF024697F90F301146BB
:100C44001846FFF75FFF00BF1837BD4680BD80B56B
:100C540082B000AF78607868FFF7B0FF03461846AB
:100C64000837BD4680BD000080B588B000AF78600D
:100C74000023FB610023FB60A34BBB6100237B616A
:100C840000233B617B68002B01D1012373E17B6866
:100C940093F84430DBB2002B06D17B68002283F842
:100CA4004520786802F016F80023BB60974B5B6C14
:100CB400964A43F480435364944B5B6C03F480433F
:100CC400BB60BB68924B5B68914A23F4000353609A
:100CD4008F4B5A687B681B6A8D4913434B607B6852
:100CE4001B6803F580531B687A68126843F001039C
:100CF40002F580521360FFF7A5FE786111E0FFF75B
:100D0400A1FE02467B69D31AB3F5FA7F09D97B6841
:100D1400032283F844207B68002283F845200323C0
:100D240029E17B681B6803F580531B6803F001030A
:100D3400002BE4D17B681B681B69FB61FB6923F012
:100D44001C03FB6101F08AFEB861BB69714A9342DE
:100D540008D9BB69704A934204D8FB6943F008037D
:100D6400FB611AE0BB696C4A934208D9BB69664AC5
:100D7400934204D2FB6943F00C03FB610DE0BB69B1
:100D8400614A934203D3BB69644A934204D9FB6921
:100D940043F00403FB6100E000BF7B681B68FA6951
:100DA4001A614FF400420021786800F08EFB03467C
:100DB400002B0BD001233B613969786800F044FDB6
:100DC4007B68012283F844200123D4E0FF20FFF74D
:100DD40043FE7B685B68002B00F0A280FFF732FEC5
:100DE400786107F10C031A460121786800F005FBCD
:100DF400FFF728FE02467B69D31A41F288329342F8
:100E04000FD901233B613969786800F01DFD7B68C7
:100E1400012283F844207B68002283F845200323C1
:100E2400A9E0FB6803F00403002BDAD04FF48052EE
:100E34000021786800F049FB0346002B0BD0012306
:100E44003B613969786800F0FFFC7B68012283F814
:100E5400442001238FE0FFF7F5FD786107F10C03CF
:100E64001A460121786800F0C8FAFFF7EBFD024644
:100E74007B69D31A41F2883293420FD901233B6133
:100E84003969786800F0E0FC7B68012283F844202B
:100E94007B68002283F8452003236CE0FB6803F0A1
:100EA4002003002BDAD007F10C031A4610217868CE
:100EB40000F0A3FA0346002B0BD001233B613969F0
:100EC400786800F0C1FC7B68012283F84420012388
:100ED40051E0FB6803F00403002B04D07B684FF45B
:100EE4000062DA6002E07B680022DA60FB6803F0EB
:100EF4000203002B03D07B6800229A6032E07B68F7
:100F04004FF480429A602DE000879303003802403A
:100F140000380140FF2C3101BF0E1602FFE0F50539
:100F24007B68DB68DB089AB27B689B685B089BB2D2
:100F340013439BB21A460021786800F0C6FA0346B0
:100F4400002B0BD001233B613969786800F07CFCED
:100F54007B68012283F8442001230CE040F6FF70F3
:100F6400FFF77AFD3969786800F06EFC7B6801222E
:100F740083F84420002318462037BD4680BD00BFB7
:100F840080B487B000AFF860B9607A603B6000233A
:100F94007B61FB6893F84530012B01D1022351E0BA
:100FA400FB68012283F84520FB68022283F8442071
:100FB400FB68BA68DA6200237B6130E07B695B011D
:100FC400BA6813443B613B694FF480121A607B6931
:100FD40040F2F45202FB03F37A6813441A463B6965
:100FE4009A60FB68DB69002B05D13B691B6843F4FD
:100FF40040023B691A603B68013B7A699A4208D215
:101004007B6901335B01BA6813441A463B69DA60B1
:1010140002E0BA683B69DA607B6901337B617A6913
:101024003B689A42CAD3FB681A68BB6802F58052CF
:101034001361FB68012283F84420FB68002283F8D3
:101044004520002318461C37BD4680BC704780B439
:1010540087B000AFF860B9607A603B6000237B61C1
:10106400FB6893F84530012B01D1022355E0FB685E
:10107400012283F84520FB68022283F84420FB68A0
:10108400BA689A6200237B6134E07B695B01BA68C9
:1010940013443B613B694FF000421A603B6944F2E0
:1010A400F4525A607B6940F2F45202FB03F37A680B
:1010B40013441A463B699A60FB689B69012B05D16E
:1010C4003B695B6823F000423B695A603B68013B23
:1010D4007A699A4208D27B6901335B01BA68134486
:1010E4001A463B69DA6002E0BA683B69DA607B69F8
:1010F40001337B617A693B689A42C6D3FB681A68FC
:10110400BB6802F58052D360FB68012283F8442057
:10111400FB68002283F84520002318461C37BD468F
:1011240080BC704780B487B000AF7860396000231A
:101134007B610023FB6000233B617B6893F84530AF
:10114400012B01D10223CCE07B68012283F84520E6
:101154007B68022283F844203B68002B09D17B681A
:10116400012283F844207B68002283F84520012370
:10117400B7E07B68DB6A1B68002B09DA7B68122204
:1011840083F844207B68002283F845200123A8E0EB
:101194003B6840F2F452934215D93B68534AA2FB90
:1011A40003239B0A7B613A68504BA3FB02139B0AFF
:1011B40040F2F45101FB03F3D31A002B05D07B69F1
:1011C40001337B6101E001237B617B69012B1CD12D
:1011D4007B68DB6A1A687B68DB6A42F040521A60FB
:1011E4007B68DB6A3A68C2F30C025A607B68DB6A8C
:1011F4001A687B68DB6A42F000421A607B68DB6A2B
:10120400DB681A467B68DA624BE000233B6144E00A
:101214007B68DB6A1A687B68DB6A22F040521A60DA
:101224003B69002B07D17B68DB6A1A687B68DB6A41
:1012340042F080521A607B68DB6A40F2F4525A60D2
:101244007B69013B3A699A4216D17B68DB6A1A686A
:101254007B68DB6A42F000521A607B69244A03FB14
:1012640002F23B68134403F2F453FB607B68DB6ACD
:10127400FA68C2F30C025A607B68DB6A1A687B68FE
:10128400DB6A42F000421A607B68DB6ADB681A465C
:101294007B68DA623B6901333B613A697B699A4254
:1012A400B6D37B681B6803F580535B6903F00403C2
:1012B400002B0DD07B681B6803F580531A4604236A
:1012C40053617B681B6803F580531A4600235360FF
:1012D4007B68012283F844207B68002283F8452040
:1012E400002318461C37BD4680BC70470BB002ACC7
:1012F4000CFAFFFF80B485B000AF78600023FB6078
:101304007B6893F84530012B01D1022370E07B68A0
:10131400012283F845207B68022283F844207B68FD
:101324009B6A1B68002B5ADB7B689B6A1B6803F46F
:101334008073002B30D07B689B6B5A1C7B689A634C
:101344007B689B6B012B03D17B689A6A7B681A6369
:101354007B689A6A7B685A637B689B6A1B681B0C70
:10136400C3F30D03043BFB607B68FA68DA637B68B4
:101374001B6B9A687B681A647B689B6ADB681A46F5
:101384007B689A627B68012283F844207B68002290
:1013940083F8452000232BE07B689B6A1B6803F4D9
:1013A4000073002B10D07B689A6A7B681A637B6891
:1013B40000225A637B6801229A637B689B6ADB681C
:1013C4001A467B689A620AE07B689B6B5A1C7B68AE
:1013D4009A637B689B6ADB681A467B689A627B68BF
:1013E400012283F844207B68002283F845200123EE
:1013F40018461437BD4680BC704780B586B000AF30
:10140400F8600B467A607B8100237B6100233B619B
:10141400FB6893F84430DBB2822B01D1022350E005
:10142400FB68822283F84420FB681B681B697B618C
:101434007B6903F01C037B61FB681B8ADB029BB2A4
:101444007A6913437B617B899B0103F4F8637A69AE
:1014540013437B617B6923F002037B617B6943F067
:1014640001037B61FB681B687A691A61FFF7EAFA7A
:10147400386115E0FFF7E6FA02463B69D31AB3F583
:10148400803F09D3FB68012283F84420FB680022D3
:1014940083F84520032314E0FB681B681B697B6108
:1014A4007B6903F00103002BE4D1FB681B685B69D3
:1014B4009BB21A467B681A60FB68012283F84420B9
:1014C400002318461837BD4680BD80B586B000AFEE
:1014D400F8600B467A607B8100237B6100233B61CB
:1014E400FB6893F84430DBB2422B01D102234EE077
:1014F400FB68422283F84420FB681B681B697B61FC
:101504007B6903F01C037B61FB681B8ADB029BB2D3
:101514007A6913437B617B899B0103F4F8637A69DD
:1015240013437B617B6943F002037B617B6943F076
:1015340001037B617B689AB2FB681B685A61FB6894
:101544001B687A691A61FFF77DFA386115E0FFF7C5
:1015540079FA02463B69D31AB3F5803F09D3FB6895
:10156400012283F84420FB68002283F845200323EA
:101574000DE0FB681B681B697B617B6903F0010359
:10158400002BE4D1FB68012283F844200023184691
:101594001837BD4680BD80B582B000AF78607B68E7
:1015A40093F84530012B01D102231FE07B6801220F
:1015B40083F845207B68022283F84420786800F091
:1015C4003FFB786800F076FB786800F001FC7868EF
:1015D40000F0AAFB786800F0D1FB7B68012283F855
:1015E40044207B68002283F84520002318460837EE
:1015F400BD4680BD80B582B000AF78607B6893F84B
:101604004530012B01D102231FE07B68012283F8BE
:1016140045207B68022283F84420786800F099FB17
:10162400786800F0C0FB786800F061FB786800F02F
:10163400CFFB786800F021FB7B68012283F844200B
:101644007B68002283F84520002318460837BD46EE
:1016540080BD000080B584B000AF7860396000239D
:10166400FB607B6893F84530012B01D10223E4E051
:101674007B68012283F845207B68022283F844209A
:101684003B68002B00F0B1807B681B681B68FB6023
:10169400FA686C4B1340FB603B681A683B685B68F4
:1016A4001A433B689B681A433B68DB681A437B68B0
:1016B4009B681A433B681B691A433B685B691A437E
:1016C4007B68DB681A433B689B691A433B68DB69A8
:1016D4001A433B681B6A1A433B685B6A1A433B68BC
:1016E4009B6A1343FA681343FB607B681B68FA68C0
:1016F4001A607B681B681B68FB600120FFF7ACF96C
:101704007B681B68FA681A603B68DA6A3B681B6B83
:101714001A433B685B6B1A433B689B6B1A433B68F9
:10172400DB6B1A433B681B6C1A433B685B6C42EAF5
:1017340003013B689A6C7B681B680A435A607B68A8
:101744001B685B68FB600120FFF786F97B681B68F8
:10175400FA685A607B681B683A68D26C9A607B6846
:101764001B683A68126DDA607B681B689B69FB60D2
:10177400FA684FF641731340FB603B685B6D1A04D3
:101784003B689B6D1A433B68DB6D1A433B681B6ED9
:101794001A433B685B6E1A433B689B6E1343FA68BB
:1017A4001343FB607B681B68FA689A617B681B685B
:1017B4009B69FB600120FFF74FF97B681B68FA689F
:1017C4009A613B68D96E3B681A6F7B681B680A4351
:1017D400DA617B681B68DB69FB600120FFF73CF979
:1017E4007B681B68FA68DA611EE07B681B681B680B
:1017F400FB60FB6823F49043FB607B689A687B681A
:10180400DB681343FA681343FB607B681B68FA6860
:101814001A607B681B681B68FB600120FFF71CF9DA
:101824007B681B68FA681A607B68012283F844208D
:101834007B68002283F84520002318461037BD46F4
:1018440080BD00BF0F8120FF80B5B0B000AF7860CD
:1018540039600023C7F8BC303B68002B07D07B6895
:101864004FF40062DA607B684FF480429A60002390
:10187400BB640023FB6400233B6500237B650023DA
:10188400BB650023FB657B68DB69002B03D14FF448
:1018940080633B6601E000233B664FF400737B6684
:1018A4000023BB660023FB6600233B6700237B67A2
:1018B4000023BB674023FB670023C7F88030002365
:1018C400C7F884300023C7F888300023C7F88C3069
:1018D4000023C7F890300023C7F894300023C7F8DA
:1018E40098300023C7F89C308023C7F8A030002329
:1018F400C7F8A4300023C7F8A8300023C7F8AC30D9
:101904000023C7F8B0300023C7F8B4300023C7F869
:10191400B8307B681B681B68C7F8BC30D7F8BC209C
:10192400AA4B1340C7F8BC30BA6CFB6C1A433B6D2E
:101934001A437B6D1A437B689B681A43BB6D1A4339
:10194400FB6D1A437B68DB681A433B6E1A437B6E5C
:101954001A43BB6E1A43FB6E1A433B6F1343D7F80B
:10196400BC201343C7F8BC307B681B68D7F8BC2085
:101974001A607B681B681B68C7F8BC300120FFF73E
:101984006BF87B681B68D7F8BC201A607A6FBB6F52
:101994001A43FB6F1A43D7F880301A43D7F88430C0
:1019A4001A43D7F888301A43D7F88C3042EA030137
:1019B400D7F890207B681B680A435A607B681B68D1
:1019C4005B68C7F8BC300120FFF746F87B681B68EA
:1019D400D7F8BC205A607B681B68D7F894209A60BB
:1019E4007B681B68D7F89820DA607B681B689B6962
:1019F400C7F8BC30D7F8BC204FF641731340C7F882
:101A0400BC30D7F89C301A04D7F8A0301A43D7F862
:101A1400A4301A43D7F8A8301A43D7F8AC301A4385
:101A2400D7F8B0301343D7F8BC201343C7F8BC3001
:101A34007B681B68D7F8BC209A617B681B689B692C
:101A4400C7F8BC300120FFF707F87B681B68D7F89C
:101A5400BC209A61D7F8B410D7F8B8207B681B680B
:101A64000A43DA617B681B68DB69C7F8BC30012074
:101A7400FEF7F2FF7B681B68D7F8BC20DA6100230D
:101A8400BB604FF00073FB6000233B614FF4001315
:101A94007B610023BB610023FB6100233B620023C5
:101AA4007B620423BB624FF00073FB624FF480330C
:101AB4003B634FF480037B634FF40053BB63802389
:101AC400FB6300233B6400237B647B681B6803F592
:101AD40080539B69C7F8BC30D7F8BC203C4B1340FB
:101AE400C7F8BC30BA68FB681A433B691A437B6980
:101AF4001A43BB691A43FB691A433B6A1A437B6A5C
:101B04001A43BB6A1343D7F8BC201343C7F8BC304D
:101B14007B681B6803F580531A46D7F8BC30936181
:101B24007B681B6803F580539B69C7F8BC300120B0
:101B3400FEF792FF7B681B6803F580531A46D7F8BB
:101B4400BC309361FA6A3B6B1A437B6B1A43BB6BE1
:101B54001A43FB6B1A433B6C9B001A437B6C134385
:101B64007A68126843F4000302F5805213607B68BC
:101B74001B6803F580531B68C7F8BC300120FEF7CF
:101B84006BFF7B681B6803F580531A46D7F8BC309B
:101B940013607B689B69012B0DD17B681B6803F57F
:101BA4008053DB697A68126843F4803343F040035E
:101BB40002F58052D3617B685B691A46002178681C
:101BC40000F008F800BFC037BD4680BD0F8120FF7C
:101BD400233FDEF880B487B000AFF860B9607A6064
:101BE4007B6805331B781B027A680432127813432E
:101BF4007B61BA68104B13441A467B6913607B6897
:101C040003331B781A067B6802331B781B041A43C0
:101C14007B6801331B781B0213437A6812781343E1
:101C24007B61BA68054B13441A467B69136000BF95
:101C34001C37BD4680BC704740800240448002404F
:101C440080B584B000AF78600023FB607B681B68BC
:101C54001A687B681B6842F008021A607B681B687C
:101C64001B68FB60012000F0D9F87B681B68FA68E8
:101C74001A6000BF1037BD4680BD80B584B000AF88
:101C840078600023FB607B681B681A687B681B68AC
:101C940022F008021A607B681B681B68FB60012045
:101CA40000F0BCF87B681B68FA681A6000BF103744
:101CB400BD4680BD80B584B000AF78600023FB6072
:101CC4007B681B681A687B681B6842F004021A6010
:101CD4007B681B681B68FB60012000F09FF87B6831
:101CE4001B68FA681A6000BF1037BD4680BD80B516
:101CF40084B000AF78600023FB607B681B681A68BF
:101D04007B681B6822F004021A607B681B681B68EE
:101D1400FB60012000F082F87B681B68FA681A6097
:101D240000BF1037BD4680BD80B483B000AF78607B
:101D34007B681B6803F580539B697A68126843F4D7
:101D4400005302F58052936100BF0C37BD4680BC3E
:101D5400704780B483B000AF78607B681B6803F57C
:101D640080539B697A68126823F4005302F5805209
:101D7400936100BF0C37BD4680BC704780B483B00C
:101D840000AF78607B681B6803F580539B697A68B1
:101D9400126843F0020302F58052936100BF0C37CE
:101DA400BD4680BC704780B483B000AF78607B6868
:101DB4001B6803F580539B697A68126823F0020359
:101DC40002F58052936100BF0C37BD4680BC70475A
:101DD40080B584B000AF78600023FB607B681B682B
:101DE40003F580539B697A68126843F4801302F503
:101DF400805293617B681B6803F580539B69FB6089
:101E0400012000F00BF87B681A68FB6802F5805229
:101E1400936100BF1037BD4680BD000080B485B01B
:101E240000AF78600A4B1B680A4AA2FB03235B0AD3
:101E34007A6802FB03F3FB6000BFFB685A1EFA607A
:101E4400002BF9D100BF00BF1437BD4680BC7047DA
:101E540000000020D34D621080B487B000AF7860DA
:101E6400396000237B616FE13B681A6801217B695B
:101E740001FA03F31340FB60FB68002B00F061815F
:101E84003B685B6803F00303012B05D03B685B6888
:101E940003F00303022B30D17B689B683B617B69B1
:101EA4005B00032202FA03F3DB433A6913403B610C
:101EB4003B68DA687B695B0002FA03F33A6913430F
:101EC4003B617B683A699A607B685B683B6101228D
:101ED4007B6902FA03F3DB433A6913403B613B68D5
:101EE4005B681B0903F001027B6902FA03F33A6998
:101EF40013433B617B683A695A603B685B6803F053
:101F04000303032B17D07B68DB683B617B695B00B1
:101F1400032202FA03F3DB433A6913403B613B6853
:101F24009A687B695B0002FA03F33A6913433B61E5
:101F34007B683A69DA603B685B6803F00303022B51
:101F440023D17B69DA087B68083253F822303B617D
:101F54007B6903F007039B000F2202FA03F3DB43C0
:101F64003A6913403B613B681A697B6903F00703D4
:101F74009B0002FA03F33A6913433B617B69DA0875
:101F84007B680832396943F822107B681B683B611F
:101F94007B695B00032202FA03F3DB433A691340D3
:101FA4003B613B685B6803F003027B695B0002FAF8
:101FB40003F33A6913433B617B683A691A603B68EF
:101FC4005B6803F44033002B00F0BB800023BB604C
:101FD400644B5B6C634A43F480435364614B5B6CB6
:101FE40003F48043BB60BB685F4A7B699B08023390
:101FF40052F823303B617B6903F003039B000F22FB
:1020040002FA03F3DB433A6913403B617B68574AA6
:10201400934231D07B68564A93422BD07B68554A11
:10202400934225D07B68544A93421FD07B68534A1D
:10203400934219D07B68524A934213D07B68514A29
:1020440093420DD07B68504A934207D07B684F4A35
:10205400934201D1082310E009230EE007230CE08A
:1020640006230AE0052308E0042306E0032304E032
:10207400022302E0012300E000237A6902F0030254
:10208400920093401A463B6913433B6136497B698E
:102094009B0802333A6941F823203D4B9B683B611E
:1020A400FB68DB433A6913403B613B685B6803F4BC
:1020B4008013002B03D03A69FB6813433B61344A15
:1020C4003B699360324BDB683B61FB68DB433A69F5
:1020D40013403B613B685B6803F40013002B03D09F
:1020E4003A69FB6813433B61294A3B69D360284B37
:1020F4005B683B61FB68DB433A6913403B613B68C7
:102104005B6803F40033002B03D03A69FB68134384
:102114003B611F4A3B6953601D4B1B683B61FB6875
:10212400DB433A6913403B613B685B6803F48033EB
:10213400002B03D03A69FB6813433B61144A3B69A3
:1021440013607B6901337B613B681A687B6922FAFF
:1021540003F3002B7FF488AE00BF00BF1C37BD46DD
:1021640080BC704700380240003801400000024043
:102174000004024000080240000C0240001002402B
:102184000014024000180240001C024000200240DB
:10219400003C014080B483B000AF78600B467B8084
:1021A40013467B707B78002B03D07A887B689A6116
:1021B40003E07B881A047B689A6100BF0C37BD4634
:1021C40080BC704780B58AB000AF78607B68002B14
:1021D40001D101233BE27B681B6803F00103002B60
:1021E40050D09E4B9B6803F00C03042B0CD09B4BEC
:1021F4009B6803F00C03082B12D1984B5B6803F423
:102204008003B3F5800F0BD1944B1B6803F40033A8
:10221400002B36D07B685B68002B32D1012316E299
:102224007B685A688E4BD2B21A707B685B68002B4D
:1022340013D0FEF707FC386208E0FEF703FC024601
:102244003B6AD31A642B01D9032300E2834B1B6836
:1022540003F40033002BF0D014E0FEF7F3FB3862F4
:1022640008E0FEF7EFFB02463B6AD31A642B01D960
:102274000323ECE1794B1B6803F40033002BF0D10A
:1022840000E000BF7B681B6803F00203002B77D0DB
:10229400724B9B6803F00C03002B0BD06F4B9B68B5
:1022A40003F00C03082B26D16C4B5B6803F480030A
:1022B400002B20D1694B1B6803F00203002B05D0CF
:1022C4007B68DB68012B01D00123C0E1634B1B68F1
:1022D40023F0F8027B681B69F821B961B96991FAA6
:1022E400A1F179617969B1FA81F1C9B28B405B4995
:1022F40013430B6044E07B68DB68002B2AD0594B06
:1023040001221A60FEF79EFB386208E0FEF79AFB92
:1023140002463B6AD31A022B01D9032397E14F4BA0
:102324001B6803F00203002BF0D04C4B1B6823F016
:10233400F8027B681B69F8213961396991FAA1F1C6
:10234400F960F968B1FA81F1C9B28B40434913438A
:102354000B6015E0434B00221A60FEF773FB3862F2
:1023640008E0FEF76FFB02463B6AD31A022B01D941
:1023740003236CE1394B1B6803F00203002BF0D1FB
:102384007B681B6803F00803002B30D07B685B6913
:10239400002B16D0344B01221A60FEF753FB38622F
:1023A40008E0FEF74FFB02463B6AD31A022B01D921
:1023B40003234CE1294B5B6F03F00203002BF0D0A5
:1023C40015E0294B00221A60FEF73CFB386208E056
:1023D400FEF738FB02463B6AD31A022B01D90323CA
:1023E40035E11E4B5B6F03F00203002BF0D17B68D9
:1023F4001B6803F00403002B00F08780002387F898
:102404002730164B1B6C03F08053002B10D1002394
:10241400BB60124B1B6C114A43F0805313640F4B87
:102424001B6C03F08053BB60BB68012387F8273023
:102434000E4B1B680D4A43F4807313600B4B1B68EF
:1024440003F48073002B22D1084B1B68074A43F422
:1024540080731360FEF7F6FA386212E00038024027
:102464000238024000004742800E4742007000409C
:10247400FEF7E8FA02463B6AD31A022B01D903237A
:10248400E5E0754B1B6803F48073002BF0D07B6888
:102494009A68724BD2B21A707B689B68002B15D075
:1024A400FEF7D0FA38620AE0FEF7CCFA02463B6A3D
:1024B400D31A41F28832934201D90323C7E0684B0F
:1024C4001B6F03F00203002BEED014E0FEF7BAFA00
:1024D40038620AE0FEF7B6FA02463B6AD31A41F2C2
:1024E4008832934201D90323B1E05D4B1B6F03F0A3
:1024F4000203002BEED197F82730012B05D1584B5E
:102504001B6C574A23F0805313647B689B69002B30
:1025140000F09C80524B9B6803F00C03082B61D0A5
:102524007B689B69022B46D14E4B00221A60FEF752
:1025340089FA386208E0FEF785FA02463B6AD31A44
:10254400642B01D9032382E0454B1B6803F000731D
:10255400002BF0D1424B5A68434B13407A68D1693F
:102564007A68126A11437A68526A920111437A684E
:10257400D26A120611437A68926A5208013A120426
:102584000A43374913434B60364B01221A60FEF766
:1025940059FA386208E0FEF755FA02463B6AD31A44
:1025A400642B01D9032352E02D4B1B6803F0007305
:1025B400002BF0D04AE02B4B00221A60FEF742FABF
:1025C400386208E0FEF73EFA02463B6AD31A642BEF
:1025D40001D903233BE0224B1B6803F00073002B5B
:1025E400F0D133E07B689B69012B01D101232EE0FC
:1025F4001B4B5B68FB61FB6903F480027B68DB694E
:102604009A4221D1FB6903F03F027B681B6A9A421C
:102614001AD1FA6947F6C07313407A68526A920174
:10262400934211D1FB6903F440327B689B6A5B08D7
:10263400013B1B049A4207D1FB6903F070627B687B
:10264400DB6A1B069A4201D0012300E000231846EE
:102654002837BD4680BD00BF00700040703802407E
:1026640000380240600047420080BCF080B586B06C
:1026740000AF786039607B68002B01D10123D2E080
:102684006B4B1B6803F00F033A689A420CD9684BF2
:102694003A68D2B21A70664B1B6803F00F033A68AB
:1026A4009A4201D00123BEE07B681B6803F0020359
:1026B400002B20D07B681B6803F00403002B05D09B
:1026C4005C4B9B685B4A43F4E05393607B681B68F4
:1026D40003F00803002B05D0564B9B68554A43F47E
:1026E40060439360534B9B6823F0F0027B689B68C4
:1026F400504913438B607B681B6803F00103002B74
:1027040040D07B685B68012B07D14A4B1B6803F4FC
:102714000033002B15D1012385E07B685B68022B15
:1027240007D1444B1B6803F00073002B09D101232C
:1027340079E0404B1B6803F00203002B01D1012315
:1027440071E03C4B9B6823F003027B685B6839496A
:1027540013438B60FEF776F978610AE0FEF772F9AD
:1027640002467B69D31A41F28832934201D903238A
:1027740059E0304B9B6803F00C027B685B689B005C
:102784009A42EBD12A4B1B6803F00F033A689A4232
:102794000CD2274B3A68D2B21A70254B1B6803F04F
:1027A4000F033A689A4201D001233CE07B681B681E
:1027B40003F00403002B08D01E4B9B6823F4E05263
:1027C4007B68DB681B4913438B607B681B6803F0E1
:1027D4000803002B09D0174B9B6823F460427B68E5
:1027E4001B69DB00134913438B6000F02BF801468F
:1027F400104B9B6803F0F003F0223A613A6992FAB5
:10280400A2F2FA60FA68B2FA82F2D2B2D3400A4A69
:10281400D35C21FA03F3094A1360094B1B68184679
:10282400FEF7CEF8002318461837BD4680BD00BF1A
:10283400003C024000380240588E0008000000208E
:10284400040000202DE9B04F94B000AF00237B6456
:102854000023FB6400233B640023BB647C4B9B6824
:1028640003F00C03082B0DD0082B00F2E780002B9B
:1028740002D0042B03D0E1E0764BBB64E1E0764B5D
:10288400BB64DEE0724B5B6803F03F037B64704B18
:102894005B6803F48003002B65D06D4B5B689B0978
:1028A4000022BB63FA63BB6BC3F308033B630023DF
:1028B4007B63D7E90C4522462B464FF000004FF0CE
:1028C4000001590141EAD261500102460B462146FA
:1028D400511A3961294663EB01037B614FF0000211
:1028E4004FF00003D7E904AB59468B01514643EA44
:1028F400916351468A01D446B2EB0C08594663EB06
:1029040001094FF000024FF000034FEAC90343EA04
:1029140058734FEAC80290469946234618EB0303BE
:10292400BB602B4649EB0303FB604FF000024FF002
:102934000003D7E9024529464B02204629460446AE
:1029440043EAD45301464A02104619467B6C0022DE
:10295400BB62FA62D7E90A23FDF732FC02460B4652
:102964001346FB645CE03A4B5B689B090022184603
:102974001146C0F308033B6200237B62D7E9088950
:1029840042464B464FF000004FF00001590141EA26
:10299400D261500102460B46C446B2EB0C0A4046D3
:1029A40049468C4663EB0C0B4FF000024FF00003DA
:1029B4004FEA8B1343EA9A634FEA8A12B2EB0A0492
:1029C40063EB0B054FF000024FF00003EB0043EA0A
:1029D4005473E20014461D460346E3183B600B465D
:1029E40045EB03037B604FF000024FF00003D7E98F
:1029F400004529468B0220462946044643EA94535F
:102A040001468A02104619467B6C0022BB61FA61BA
:102A1400D7E90623FDF7D4FB02460B461346FB64B5
:102A24000B4B5B681B0C03F0030301335B003B643B
:102A3400FA6C3B6CB2FBF3F3BB6402E0054BBB6482
:102A440000BFBB6C18465037BD46BDE8B08F00BF11
:102A5400003802400024F40000127A0080B400AF71
:102A6400024B1B681846BD4680BC7047000000201E
:102A740080B584B004AF8D4BC0221A708B4BA82252
:102A84005A708A4B00229A70884B6E22DA70884BF7
:102A9400FF221A70864BFF225A70854BFF229A70D0
:102AA400834B0022DA70834BC0221A70814BA82218
:102AB4005A70804B00229A707E4B0122DA7000F02B
:102AC400B5FC7A4B1B781A06784B5B781B041A43C7
:102AD400764B9B781B021343744AD27813431A062D
:102AE400724B1B781906714B5B781B0419436F4BAF
:102AF4009B781B020B436D49C9780B431B0203F4FB
:102B04007F031A43694B1B781906684B5B781B04D7
:102B14001943664B9B781B020B436449C9780B43EA
:102B24001B0A03F47F431A43604B1B7819065F4B5F
:102B34005B781B0419435D4B9B781B020B435B4979
:102B4400C9780B431B0E13435B4A1360584B1B7825
:102B54001A06574B5B781B041A43554B9B781B0290
:102B64001343534AD27813431A06514B1B78190660
:102B74004F4B5B781B0419434D4B9B781B020B4353
:102B84004B49C9780B431B0203F47F031A43484B98
:102B94001B781906464B5B781B041943444B9B78FE
:102BA4001B020B434249C9780B431B0A03F47F43BE
:102BB4001A433F4B1B7819063D4B5B781B041943A2
:102BC4003B4B9B781B020B433949C9780B431B0EC3
:102BD40013433A4A1360374B1B781A06354B5B781C
:102BE4001B041A43334B9B781B021343314AD2789C
:102BF40013431A062F4B1B7819062E4B5B781B04C4
:102C040019432C4B9B781B020B432A49C9780B436D
:102C14001B0203F47F031A43264B1B781906254B2A
:102C24005B781B041943234B9B781B020B432149FC
:102C3400C9780B431B0A03F47F431A431D4B1B78CB
:102C440019061C4B5B781B0419431A4B9B781B0217
:102C54000B431849C9780B431B0E1343184A1360DE
:102C6400184B0293184B019300230093144B134AFF
:102C74001149164800F0D6FF144801F0A5F8134B8B
:102C840093F82F309B0803F00103DBB2002B03D031
:102C94000E4801F0A7F802E00C4801F0E7F80C49EF
:102CA4000A4801F005F900BFBD4680BDCC000020F4
:102CB400D0000020D4000020C0000020C400002068
:102CC400C8000020296E0008A13200088C000020F2
:102CD4000D33000880B58EB000AF786007F124038F
:102CE40000221A605A609A60DA601A617B681B6875
:102CF400554A934240F0A48000233B62534B1B6B24
:102D0400524A43F000731363504B1B6B03F0007380
:102D14003B623B6A0023FB614C4B1B6B4B4A43F009
:102D240080631363494B1B6B03F08063FB61FB6996
:102D34000023BB61454B1B6B444A43F000631363A0
:102D4400424B1B6B03F00063BB61BB6900237B61D7
:102D54003E4B1B6B3D4A43F0040313633B4B1B6B1D
:102D640003F004037B617B6900233B61374B1B6BDE
:102D7400364A43F001031363344B1B6B03F0010326
:102D84003B613B690023FB60304B1B6B2F4A43F0D4
:102D9400020313632D4B1B6B03F00203FB60FB6800
:102DA4000023BB60294B1B6B284A43F04003136389
:102DB400264B1B6B03F04003BB60BB6832237B6272
:102DC4000223BB620023FB6203233B630B237B636D
:102DD40007F1240319461E48FFF73EF886237B6259
:102DE4000223BB620023FB6203233B630B237B634D
:102DF40007F1240319461748FFF72EF84FF4005340
:102E04007B620223BB620023FB6203233B630B232D
:102E14007B6307F1240319460F48FFF71DF84FF4AD
:102E240020537B620223BB620023FB6203233B63C8
:102E34000B237B6307F1240319460848FFF70CF8BA
:102E440000BF3837BD4680BD0080024000380240D4
:102E54000008024000000240000402400018024042
:102E640080B586B000AF786000233B614D4B4E4A7D
:102E74001A604C4B01225A604A4B4FF480429A60CC
:102E8400484B4FF40062DA60464B00221A8200235A
:102E94003B7280237B72E123BB720023FB7200230D
:102EA4003B7300237B733F4A07F1080353613D4B97
:102EB40000229A613B4B0022DA613A4B4FF4000244
:102EC4001A623848FDF7D0FE0346FB75FB7D002BE4
:102ED40008D17B6893F82F3043F00403DAB27B689F
:102EE40083F82F200423314A31492E48FEF748F84D
:102EF4000423304A30492B48FEF7A9F87B680622A0
:102F040083F82820274B5B691A787B6883F829208B
:102F1400244B5B695A787B6883F82A20214B5B69D0
:102F24009A787B6883F82B201E4B5B69DA787B6880
:102F340083F82C201B4B5B691A797B6883F82D205E
:102F4400184B5B695A797B6883F82E207B6840F2C2
:102F5400DC52DA847B6893F82F3043F00A03DAB248
:102F64007B6883F82F200F48FEF715FB07F1100349
:102F74001A461D210B48FEF740FA3B6943F00B0348
:102F84003B613B691A461D210648FEF79EFA07F18C
:102F940010031A461D210348FEF72FFA00BF183705
:102FA400BD4680BD7831002000800240A819002071
:102FB40058010020D8010020D800002080B58AB034
:102FC40000AF786039604B4BDB6A9B68FB61002380
:102FD4007B6100233B610023FB600023BB60454B06
:102FE400DB6ABB6100233B613B683B625AE0BB691F
:102FF4001B68002B03DAF82387F827305CE03B6A70
:103004005B89FB600023BB602FE0FA693B69D01841
:103014003B6A5A68BB68D1183B69C3F5BE63043385
:103024001A4604F067F9BB69DB68BB61BB691B68BE
:10303400002B03DAF82387F827303DE0BB699B684F
:10304400FB613A69FB681344A3F2F453FB60BA686A
:103054003B69D31A03F2F453BB607A693B69D31A10
:1030640003F2F4537B6100233B61FA683B69134428
:1030740040F2F4529342C8D8FA693B69D0183B6ACB
:103084005A68BB681344FA68194604F033F93A697C
:10309400FB6813443B617A69FB6813447B613B6AB8
:1030A4001B683B623B6A002BA1D179691148FEF78A
:1030B40039F8002387F827300E4B1B6803F580533B
:1030C4005B6903F02003002B0DD00A4B1B6803F54A
:1030D40080531A4620235361064B1B6803F5805323
:1030E4001A460023536097F9273018462837BD46FF
:1030F40080BD00BF7831002080B58CB000AF78600F
:103104000023FB620023BB620023FB810023FB61DD
:103114000023BB6100237B6100233B614E48FEF723
:10312400E9F80346002B01D0002390E04A4BDB6B07
:10313400FB81494B1B6C7B62FB89002B06D0FB890E
:1031440003221946042000F0C3FEF862FB6A002B38
:103154004BD0414B1B6B3B620023FB61FB6ABB62A0
:1031640040E0BB6A5B897B610023BB6121E0BB6AF1
:103174005A68BB69D0187A6AFB69D118FB69C3F530
:10318400BE6304331A4604F0B5F83B6ADB683B625D
:103194003B6A9B687B62FA697B691344A3F2F4532C
:1031A4007B61BA69FB69D31A03F2F453BB61002350
:1031B400FB617A69FB69134440F2F4529342D6D816
:1031C400BB6A5A68BB69D0187A6AFB6913447A6986
:1031D400194604F08FF8FA697B691344FB61BB6AF2
:1031E4001B68BB62BB6A002BBBD11B4B1B6B3B62D6
:1031F40000233B610BE03B6A1B6843F000423B6ADF
:103204001A603B6ADB683B623B6901333B61124BEA
:103214009B6B3A699A42EED30F4B00229A630E4B92
:103224001B6803F580535B6903F08003002B0DD00A
:10323400094B1B6803F580531A4680235361064BE0
:103244001B6803F580531A4600239360FB6A1846F3
:103254003037BD4680BD00BF7831002080B584B0D2
:1032640000AF78607868FFF747FFF860FB68002BD1
:1032740010D07B681B697968F86898470346FB722D
:1032840097F90B30002B06D0F86801F095F900236C
:10329400FB6000E000BF1037BD4680BD80B582B042
:1032A40000AF78607B68002B06D10E4B4FF405729B
:1032B4000D490E4803F044FF7B68732283F83020E5
:1032C4007B68742283F831207B68094A5A617B68E1
:1032D400084A9A617868FFF7C3FD00231846083747
:1032E400BD4680BD847E0008A07E0008B07E000834
:1032F40031540008C12F000880B500AFFDF7A2FBD0
:103304000346184680BD000080B584B000AF7860E5
:103314000023FB600023BB607B6893F82F309B087D
:1033240003F00103DBB2002B5DD0344B5B68002B50
:103334003FD04FF4805200213048FEF7C6F8FDF725
:1033440081FB0346FB6007F108031A4601212B4861
:10335400FEF753F8FDF776FB0246FB68D31AB3F584
:103364007A7F28D8BB6803F02003002BEBD007F149
:1033740008031A4610212148FEF73FF8BB6803F002
:103384000403002B04D01D4B4FF40062DA6002E00A
:103394001A4B0022DA60BB6803F00203002B03D04F
:1033A400164B00229A6016E0144B4FF480429A6048
:1033B40011E000BF00E000BF104BDB68DB089AB2ED
:1033C4000E4B9B685B089BB213439BB21A460021C9
:1033D4000A48FEF77AF800210848FEF73BF9074847
:1033E400FEF7D9F802E00548FEF704F9786800F022
:1033F40007F800BF1037BD4680BD00BF78310020FC
:1034040080B483B000AF786000BF0C37BD4680BC89
:10341400704780B483B000AF0346FB80FB885BBA7F
:103424009BB218460C37BD4680BC704780B582B04D
:1034340000AF00237B6000F0A3F800F033FB00F042
:10344400EBFB01F0BDFA00BF0837BD4680BD0000AC
:1034540080B584B000AF7860404B1B687A689A42AC
:1034640006D23F4B40F25D123E493F4803F068FEEE
:103474003E4B1B687A689A4206D3394B4FF4AF72BD
:103484003B49394803F05CFE7B681B79002B06D06E
:10349400334B40F25F123749334803F051FE7B68E7
:1034A4001B88B3F5205F06D92D4B4FF4B172324916
:1034B4002D4803F045FE294B1B687A681288134493
:1034C400FB607A68FB689A421FD0FB681B79002B6B
:1034D4001BD1264B1B68FA689A4216D0274B1B68EF
:1034E400FA689A4202D1254A7B681360FB681A88FD
:1034F4007B681A80194B1B687A68D11A174B1B68B2
:10350400FA68128813448AB25A80144B1B687A688A
:1035140052881344BB60BA687B689A421AD0BB686D
:103524001B79002B16D1154B1B687A689A4202D17D
:10353400124ABB6813607B681A88BB681A80074B01
:103544001B68BA68D11A054B1B687A681288134441
:103554008AB25A8000BF1037BD4680BDEC590020A6
:10356400D87E0008087F0008207F0008F05900205A
:10357400487F0008647F0008807F0008F459002019
:1035840080B483B000AF184B033323F003031A460F
:10359400164B1A60154B1B687B607B684FF42052F6
:1035A4001A807B6800225A807B6800221A710F4BB4
:1035B4001B6803F520530E4A13600D4B1B68012250
:1035C4001A710B4B1B684FF420521A80084B1B686E
:1035D4004FF420525A80054B1B68064A136000BF03
:1035E4000C37BD4680BC7047D8310020EC59002010
:1035F400F0590020F459002080B584B000AF786001
:103604007B68002B43D07B6803F00303002B06D0B8
:10361400224B4FF4D6722249224803F091FD224BEB
:103624001B687A689A4204D3204B1B687A689A42D2
:1036340006D31A4B4FF4D7721D491A4803F080FD84
:10364400194B1B687A689A4223D3184B1B687A6813
:103654009A421ED27B68083BFB60FB681B79002BF7
:1036640006D10E4B4FF4E07212490E4803F068FD88
:10367400FB6800221A71104B1B68FA689A4202D246
:103684000D4AFB681360F868FFF7E2FE02E000BF32
:1036940000E000BF1037BD4680BD00BFD87E0008E3
:1036A400AC7F0008207F0008EC590020F05900206E
:1036B400D07F0008E87F0008F459002080B586B068
:1036C40000AF78600B467B807B8803339BB223F08A
:1036D40003037B807B880B2B01D80C237B807B88A6
:1036E400B3F5205F01D90023B1E05B4B1B687A6816
:1036F4009A4204D3594B1B687A689A4206D3584BB2
:1037040040F2F3125749584803F01AFD524B1B6814
:103714007A689A4204D3514B1B687A689A4201D35F
:103724007B6894E07B68083B7B614B4B1B687A6940
:10373400D31A7B827B691A887B8AD31A9BB2083B93
:103744003B827A883B8A9A4206D9454B40F206224C
:103754004649454803F0F4FC7A883B8A9A4201D9E9
:10376400002374E07A883B8A9A4201D17B686EE038
:10377400394B1B687A6912881344FB60FB681B7918
:10378400002B31D1FB681B883B817A8A7B881344E8
:103794009BB208337B81364B1B68FA689A4205D189
:1037A4002D4B1A687B891344314A13602A4B1A68DB
:1037B4007B891344FB60FB6800221A71FB683A8919
:1037C4001A80FB687A8A5A807B697A891A80FB6836
:1037D4001B88B3F5205F39D01F4B1B68FA68128829
:1037E40013447A895A8031E07B8803F114023B8ABE
:1037F4009A422BD87A8A7B8813449BB208337B8104
:10380400154B1A687B891344FB60194B1B68FA68D3
:103814009A4202D2164AFB681360FB6800221A71AE
:103824007B691A88FB681A80FB687A8A5A807B69EC
:103834007A891A80FB681B88B3F5205F06D0064B93
:103844001B68FA68128813447A895A807B68184680
:103854001837BD4680BD00BFEC590020F059002048
:10386400D87E0008FC7F0008207F00081480000830
:10387400F459002080B588B000AF0346FB80FB8874
:10388400002B01D10023C7E0FB8803339BB223F054
:103894000303FB80FB880B2B01D80C23FB80FB88E4
:1038A400B3F5205F01D90023B6E05D4B1A685D4B88
:1038B4001B68D31AFB83A7E05A4B1A68FB8B13448B
:1038C4007B617B691B79002B40F098807B691B88A6
:1038D4001A46FB8BD31AA3F10802FB889A42C0F064
:1038E4008D807B691B881A46FB8BD31AA3F10802CF
:1038F400FB8814339A4227D3FA8BFB8813449BB278
:1039040008337B82474B1A687B8A1344FB60FB684D
:1039140000221A717B691A88FB681A80FB68FA8B8B
:103924005A807B697A8A1A807B6901221A71FB6842
:103934001B88B3F5205F0AD03A4B1B68FA681288DB
:1039440013447A8A5A8002E07B6901221A71344B4B
:103954001B687A699A4227D1314B1B68BB6105E029
:10396400304B1B68BA6912881344BB61BB691B796D
:10397400002B04D02C4B1B68BA699A42F0D1284A18
:10398400BB691360264B1A68274B1B689A420BD0FD
:10399400234B1B681B79002B06D0244B40F2CF220B
:1039A4002349244803F0CCFBFA887B691344083389
:1039B4001D4A1268934206D91C4B40F2D3221E4979
:1039C4001C4803F0BDFB7B6903F00303002B06D006
:1039D400164B40F2D5221949164803F0B1FB7B6916
:1039E40003F00303002B06D0104B40F2D7221449F6
:1039F400104803F0A5FB7B6908330DE0094B1A68F6
:103A0400FB8B13441B88FB83FA8BFB88C3F5205381
:103A14009A42FFF451AF002318462037BD4680BDBB
:103A2400F4590020EC590020F0590020D87E0008F9
:103A340034800008207F000850800008808000083F
:103A4400B080000880B485B000AF78607B689B6864
:103A540000221A607B685B68033323F00303BB60B6
:103A64000023FB6011E07B689B681A68BB681A60DE
:103A74007B689B68BA681A607B681B881A46BB68B7
:103A84001344BB60FB680133FB607B685B881A46A8
:103A9400FB689342E7DB00BF00BF1437BD4680BC20
:103AA4007047000080B582B000AF0023FB8009E0BE
:103AB400FB88084A52F823301846FFF7C3FFFB88F7
:103AC4000133FB80FB88042BF2D900BF00BF083709
:103AD400BD4680BDA48E000880B584B000AF786078
:103AE4007B689B681B68FB60FB68002B12D07B68BB
:103AF4009B68FA6812681A60FB6803F00303002BE2
:103B040006D0074B4FF4A4720649074803F018FB8C
:103B1400FB6800E0002318461037BD4680BD00BF97
:103B2400D4800008048100082881000880B584B08E
:103B340000AF0346FB71FB79042B08D90A4B40F212
:103B440087120A490A4803F0FBFA002308E0FB79CC
:103B5400084A52F823301846FFF7BEFFF860FB68A6
:103B640018461037BD4680BDD48000086481000823
:103B740028810008A48E000880B584B000AF786066
:103B840039603B6803F00303002B06D00A4B4FF463
:103B9400CE720A490A4803F0D3FA3B68FB607B689B
:103BA4009B681A68FB681A607B689B68FA681A60ED
:103BB40000BF1037BD4680BDD48000088481000852
:103BC4002881000880B582B000AF03463960FB71DC
:103BD400FB79042B07D90C4B40F2DB120B490C4840
:103BE40003F0AEFA0CE03B68002B08D0FB79094ADD
:103BF40052F8233039681846FFF7BEFF00E000BFD3
:103C04000837BD4680BD00BFD4800008A4810008E9
:103C140028810008A48E000880B400AF00BFBD4610
:103C240080BC704780B584B000AFF860B9607A603A
:103C34003B60FB69002B05D1214BFB222149224823
:103C440003F07EFAFB6800225A60FB6800229A6047
:103C5400FB680022DA60FB68002283F82F20FB68EF
:103C6400032283F82420FB680022DA61FB68BA6926
:103C74001A62164B1B785A1CD1B2144A1170FA6896
:103C840082F83230FB683A6A1A613B687A68B9682C
:103C9400F86800F01FF8FB69F86898470346002BA2
:103CA40001D0002307E00A4B1A68FB681A60084A2F
:103CB400FB681360FB6818461037BD4680BD00BF23
:103CC400C0810008F48100080C82000850830020A1
:103CD4004883002080B584B000AFF860B9607A6092
:103CE4003B60BB68002B03D0BB681B68002B0CD166
:103CF400B968F86800F01AF87968F86800F051F8C3
:103D04003968F86800F03AF80CE07968F86800F06F
:103D140048F83968F86800F031F8B968F86800F0D4
:103D240005F800BF00BF1037BD4680BD80B584B024
:103D340000AF786039603B68002B03D03B681B6898
:103D4400FB6002E00C4B1B68FB60FA687B68043381
:103D54001B689A420CD03B68002B02D03B681B685E
:103D640000E000237A6853600121786800F05DF870
:103D740000BF1037BD4680BDC88E000880B483B034
:103D840000AF786039603B68002B02D03B681B6849
:103D940000E000237A68D36000BF0C37BD4680BCC6
:103DA400704780B483B000AF786039603B68002B03
:103DB40002D03B681B6800E000237A68936000BF70
:103DC4000C37BD4680BC704780B483B000AF7860C8
:103DD400034A7B68136000BF0C37BD4680BC704744
:103DE4004C83002080B582B000AF78607B6893F884
:103DF4002F3003F00103002B13D17B6893F82F308D
:103E040043F00103DAB27B6883F82F207B6893F8D0
:103E14002F3003F00403002B03D00321786800F053
:103E240004F800BF0837BD4680BD80B582B000AF3E
:103E340078600B46FB70FB7803F00103002B11D074
:103E44007B6804331B68002B0CD07B6893F82F30FD
:103E540003F00803002B05D07B6804331946786807
:103E640001F0C8FD00BF0837BD4680BD80B582B0F3
:103E740000AF78607B6893F82F3003F00103002BC8
:103E840012D07B6893F82F3023F00103DAB27B68F9
:103E940083F82F207B6893F82F3003F00803002B5E
:103EA40002D0786801F06CF900BF0837BD4680BDC8
:103EB40080B483B000AF786039607B68002B02D097
:103EC4007B683A68DA6100BF0C37BD4680BC704736
:103ED40080B588B000AF0346FB710B46BB80134628
:103EE400BB71FB79042B1CD801A252F823F000BF4C
:103EF400093F00080F3F0008153F00081B3F00085A
:103F0400213F00083623FB8214E02223FB8211E0C8
:103F14000E23FB820EE00023FB820BE00023FB82D6
:103F240008E09F4B4FF48B729E499F4803F008F9B9
:103F3400002358E1BB79032B0DD0032B00F34281FE
:103F4400002B00F0CC80002BC0F23C81013B012B04
:103F540000F2388109E10420FFF7E8FDF861FB690C
:103F6400002B01D100233EE1FB69BA791A73FB6986
:103F740000221A60FB8A1033FA691344033323F0D6
:103F840003031A46FB695A60FB695B6803F0030389
:103F9400002B06D0824B4FF494728449824803F07C
:103FA400CFF8FB69BA881A81FB8A033323F0030331
:103FB400C3F51472BB88934228BF13469AB2FB69B7
:103FC4005A81FB695B68FA6952891A44FB6903F5F3
:103FD40018739A4206D9724B4FF497727449724817
:103FE40003F0AEF8FB8A033323F00303B3F5147F25
:103FF40006D16B4B40F231126E496B4803F0A0F8C6
:10400400FB690122DA81FB69BB61BB88FA695289C9
:104014009B1A3B615FE00420FFF788FDF860FB68B2
:10402400002B04D1F86900F0C7FA0023DBE0FB6839
:10403400BA791A73FB6800225A73FB6800221A606B
:10404400BB69FA681A603B694FF6FE72934206DD5B
:10405400534B4FF4A6725849534803F071F83B6927
:104064009AB2FB681A813B699BB2B3F5147F28BFEF
:104074004FF414739AB2FB685A81FB6803F110027F
:10408400FB685A60FB685B6803F00303002B06D0EF
:10409400434B40F251124949434803F051F8FB693C
:1040A4005B68FA6952891A44FB6903F518739A42EA
:1040B40006D93B4B40F253123D493B4803F040F8CC
:1040C400FB680122DA81FB685B891A463B699B1A0B
:1040D4003B61FB68BB613B69002B9CDC7CE0FB8A99
:1040E40013339BB223F003039AB2BB8803339BB20E
:1040F40023F003039BB213447B817A89BB88033387
:1041040023F003039A4201D200236CE07B89184612
:10411400FFF7B0FBF861FB69002B01D1002362E0DB
:10412400FB8A1033FA691344033323F003031A465A
:10413400FB695A60FB69BA881A81FB691A89FB69B1
:104144005A81FB6900221A60FB69BA791A73FB6908
:104154005B6803F00303002B3DD0114B4FF4BB729B
:104164001749114802F0ECFF35E00320FFF7DEFCAD
:10417400F861FB69002B01D1002334E0FB690022C4
:104184005A60FB69BA881A81FB691A89FB695A81EA
:10419400FB6900221A60FB69BA791A731CE000BF3C
:1041A400348200086482000880820008A882000823
:1041B400D88200080C830008408300085483000858
:1041C400848300080A4B4FF4C6720A490A4802F075
:1041D400B7FF002307E000BFFB690122DA81FB6916
:1041E40000225A73FB6918462037BD4680BD00BFC4
:1041F40034820008B08300088082000880B584B04F
:1042040000AF3B600346FB710B46BB801346BB719A
:10421400FB79042B1BD801A252F823F03542000885
:104224003B42000841420008474200084D42000852
:104234003623FB8114E02223FB8111E00E23FB8152
:104244000EE00023FB810BE00023FB8108E01D4B03
:1042540040F2C5121C491D4802F072FF00232DE0F4
:10426400FB89033323F00302BB881A44BB8B9A42B5
:1042740001D9002322E03B6800221A60BB69002BAD
:1042840008D0FB89033323F00303BA691A443B685B
:104294005A6002E03B6800225A603B6802225A736B
:1042A4003B68BA881A813B681A893B685A813B6823
:1042B400BA791A733B680122DA813B6818461037D1
:1042C400BD4680BD34820008CC830008808200088B
:1042D40080B586B000AF78600B467B807B68002B8E
:1042E40006D14B4B40F2F3124A494B4802F028FFE7
:1042F4007B681B7B032B12D07B681B7B012B0ED0AE
:104304007B681B7B002B0AD07B681B7B022B06D0AF
:104314003F4B4FF4FA7241493F4802F011FF7B686A
:104324001B897A889A426ED27B887A6812899B1A92
:10433400FB607B887B827B687B6125E07B695B8992
:104344007A8AD31A7B82FB684FF6FE72934206DDAB
:104354002F4B40F20B2232492F4802F0F1FE7B69C9
:104364001A89FB689BB213449AB27B691A817B69F0
:104374001B687B617B69002B06D1254B40F20F2221
:104384002849254802F0DCFE7B695B897A8A9A42D7
:10439400D4D87B691B7B002B21D17B695B897A8A0A
:1043A4009A421CD07B695B7B03F00203002B16D17D
:1043B4007B695A687B69D31A9AB27B8A13449BB28D
:1043C40019467869FFF77AF978617B69002B06D181
:1043D4000F4B40F21D2214490F4802F0B1FE7B69D5
:1043E4007A8A5A817B695A897B691A817B691B683D
:1043F400002B04D07B691B68184600F0DDF87B694C
:1044040000221A6000E000BF1837BD4680BD00BF1F
:1044140034820008F08300088082000808840008C1
:1044240024840008388400085084000880B584B0CF
:1044340000AF78600B467B8013467B707B68002B53
:1044440006D1464B40F23F224549464802F078FEE9
:10445400B7F90230002B02D07B68002B01D1002376
:1044640078E0B7F90230002B10DA7B885B42FB81DD
:104474007B685B89FA899A420AD9384B40F2472211
:104484003949384802F05CFE012363E07B88FB81F4
:104494007B681B7BBB817B685B68BB60BB89002B33
:1044A40002D0BB89032B12D17B685A68B7F902305A
:1044B4005B421A447B685A607B685A687B68103395
:1044C4009A4238D27B68BA685A60012342E0BB89B9
:1044D400022B02D0BB89012B24D1B7F90230002B67
:1044E4000DDA7B685B89FA899A4208D87B685A6836
:1044F400B7F902305B421A447B685A6011E0B7F99D
:104504000230002B0BDD7B78002B08D07B685A68C7
:10451400B7F902305B421A447B685A6001E0012318
:1045240018E008E00D4B40F2772210490D4802F0E4
:1045340007FE01230EE07B685A897B8813449AB2F4
:104544007B685A817B681A897B8813449AB27B689A
:104554001A81002318461037BD4680BD34820008F6
:104564006C8400088082000878840008988400081D
:1045740080B582B000AF78600B467B80B7F902301B
:10458400002219467868FFF751FF0346184608379A
:10459400BD4680BD80B582B000AF78600B467B809D
:1045A400B7F90230012219467868FFF73FFF034646
:1045B40018460837BD4680BD80B586B000AF786028
:1045C4007B68002B0BD17B68002B06D13E4B40F25D
:1045D400D2223E493E4802F0B3FD002370E07B68DE
:1045E4001B7B002B12D07B681B7B012B0ED07B68BE
:1045F4001B7B022B0AD07B681B7B032B06D0324B20
:104604004FF437723349324802F09AFD0023FB75A8
:1046140052E07B68DB89002B06D12B4B40F2EB2266
:104624002D492B4802F08CFD7B68DB89013B9AB253
:104634007B68DA817B68DB89BB82BB8A002B39D13A
:104644007B681B683B617B681B7BFB817B685B7BB6
:1046540003F00203002B11D07B68BB60BB681B69AD
:10466400002B06D1184B40F2F9221C49184802F0DD
:1046740067FDBB681B697868984715E0FB89032BC5
:1046840004D179680420FFF79DFA0DE0FB89012B22
:1046940002D0FB89022B04D179680320FFF792FA38
:1046A40002E07868FEF7A8FFFB7D0133FB753B69E8
:1046B4007B6001E000237B607B68002BA9D1FB7D3C
:1046C40018461837BD4680BD348200086C84000843
:1046D40080820008A8840008C0840008D8840008E8
:1046E40080B485B000AF78600023FB8105E0FB89CE
:1046F4000133FB817B681B687B607B68002BF6D1F0
:10470400FB8918461437BD4680BC704780B582B01B
:1047140000AF78607B68002B10D07B68DB890133A5
:104724009AB27B68DA817B68DB89002B06D1054B62
:1047340040F239320449054802F002FD00BF08374F
:10474400BD4680BD34820008FC84000880820008D5
:1047540080B584B000AF786039607B68002B02D0EC
:104764003B68002B07D1204B4FF453721F4920485C
:1047740002F0E6FC34E07B68FB600AE0FB681A891F
:104784003B681B8913449AB2FB681A81FB681B6857
:10479400FB60FB681B68002BF0D1FB681A89FB687F
:1047A4005B899A4206D0104B40F2553211491048A9
:1047B40002F0C6FCFB681B68002B06D00A4B40F2D3
:1047C40056320D490A4802F0BBFCFB681A893B6863
:1047D4001B8913449AB2FB681A81FB683A681A6011
:1047E4001037BD4680BD00BF348200081085000824
:1047F40080820008488500087885000880B584B068
:1048040000AF786039600023FB810023BB817B68A3
:10481400002B08D03B68002B05D07B681A893B68C5
:104824001B899A4209D2544B4FF46F72534954482E
:1048340002F086FC6FF00F0399E07B685B891A46EF
:10484400FB89D21A3B685B891946BB89CB1A9A4209
:1048540005DB3B685A89BB89D31A7B8104E07B68FA
:104864005A89FB89D31A7B817B685A68FB89D018E3
:104874003B685A68BB8913447A89194602F03AFDA9
:10488400FA897B891344FB81BA897B891344BB81F0
:104894007B685B89FA899A4206D9374B40F2CD325C
:1048A4003849374802F04CFC3B685B89BA899A4224
:1048B40006D9314B40F2CE323349314802F040FC44
:1048C4003B685B89BA899A4204D30023BB813B6865
:1048D4001B683B607B685B89FA899A4214D1002388
:1048E400FB817B681B687B607B68002B0CD13B6879
:1048F400002B09D0204B4FF476722449204802F053
:104904001FFC6FF00F0332E03B68002B13D03B68B1
:104914005A893B681B899A420DD13B681B68002B5E
:1049240009D0154B40F2DD321949154802F008FC54
:104934006FF005031BE07B68002B13D07B685A895A
:104944007B681B899A420DD17B681B68002B09D0B8
:10495400094B40F2E2320E49094802F0F1FB6FF0D4
:10496400050304E03B68002B7FF467AF002318467F
:104974001037BD4680BD00BF34820008C4850008DE
:1049840080820008F48500080C8600082886000848
:104994003886000880B584B000AF78607B68FB601F
:1049A400FB685B689847FB681B687A68034918468C
:1049B40000F02EF800BF1037BD4680BD99490008AD
:1049C40080B582B000AF00237B600EE00D4A7B68A7
:1049D40052F833007B68DB000A4A13441A460A493A
:1049E40000F016F87B6801337B607B68012BEDD9FE
:1049F400FEF782FC0346054A136000BF0837BD4634
:104A040080BD00BFB88E0008994900085883002073
:104A140080B588B000AFF860B9607A600220FFF713
:104A240085F878617B69002B0AD17B69002B40F003
:104A34008480444BD4224449444802F081FB7CE006
:104A4400FEF75AFC3861424B1B68002B05D100234A
:104A5400BB61404A3B69136004E03E4B1B683A6902
:104A6400D31ABB617B6900221A607B69BA689A60B9
:104A74007B697A68DA60FA68BB691A447B695A60B0
:104A8400334B1B68002B03D1314A7B69136055E01B
:104A94002F4B1B685B68FA689A420FD22C4B1B6839
:104AA40059682B4B1B68FA688A1A5A60284B1A6893
:104AB4007B691A60264A7B6913603FE0244B1B68BC
:104AC400FB6136E07B695A68FB695B68D21A7B69D3
:104AD4005A60FB691B68002B06D0FB691B685A6887
:104AE4007B695B689A4221D9FB691B68002B09D05A
:104AF400FB691B6859687B695A68FB691B688A1AD9
:104B04005A600BE07B695B68FA689A4206D2104BE4
:104B14001B685A68FB681A447B695A60FB691A6807
:104B24007B691A60FB697A691A6007E0FB691B6894
:104B3400FB61FB69002BC5D100E000BF2037BD46F7
:104B440080BD00BF4087000874870008B487000850
:104B5400548300205883002080B586B000AF214BD9
:104B64001B68002B39D0FEF7C7FBF8601E4B1B688F
:104B7400FA68D31A7B610023FB741A4B1B68BB6071
:104B8400BB68002B26D0BB685B687A699A4221D344
:104B94000123FB74BB685A68134B1B681344124A05
:104BA4001360BB685B687A69D31A7B61BB681B6856
:104BB4000C4A1360BB689B687B60BB68DB683B6026
:104BC400B9680220FEF7FEFF7B68002B02D07B68E9
:104BD40038689847FB7C002BCDD100BF1837BD4601
:104BE40080BD00BF548300205883002080B582B06C
:104BF40000AF786015497A6813465B001344DB0004
:104C04000B441B68002B13D010497A6813465B00D1
:104C14001344DB000B441B681846FFF7CDFC0B491B
:104C24007A6813465B001344DB000B4400221A60CD
:104C340006497A6813465B001344DB000B441433C3
:104C440000221A7000BF0837BD4680BD5C83002077
:104C540080B582B000AF0023FB7196E0FA794F492A
:104C640013465B001344DB000B4414331B78BB7105
:104C7400BB79002B00F08680FA79484913465B0023
:104C84001344DB000B4412331B88013398B24349AD
:104C940013465B001344DB000B44123302461A80B4
:104CA400FA793E4913465B001344DB000B4412338C
:104CB4001B88B3F5967F15D2FA79384913465B0001
:104CC4001344DB000B4414331B78012B0FD1FA7906
:104CD400324913465B001344DB000B4412331B8838
:104CE400042B04D9FB791846FFF780FF4AE0FA79D0
:104CF4002A4913465B001344DB000B4414331B782E
:104D0400032B0AD1FA79254913465B001344DB00CF
:104D14000B44143304221A7034E0FA791F49134601
:104D24005B001344DB000B4414331B78042B0AD1BF
:104D3400FA791A4913465B001344DB000B4414331D
:104D440002221A701EE0FA79144913465B001344D8
:104D5400DB000B4414331B78012B13D1FA790F4970
:104D640013465B001344DB000B4408331868FA79DC
:104D740013465B001344DB00084A1344043319460A
:104D840000F038FEFB790133FB71FB79092B7FF6C8
:104D940065AF00BF00BF0837BD4680BD5C830020FF
:104DA40080B588B000AFF8600B467A60FB720A23C6
:104DB400FB770A23BB770A237B7700233B770A23FD
:104DC400FB7600233B830023FB820023BB8200236A
:104DD4003B7793E03A7F904913465B001344DB0032
:104DE4000B4414331B78FB7497F91D300A2B05D13F
:104DF400FB7C002B02D13B7F7B777CE0FB7C002B90
:104E040079D0FB7C012B09D0FB7C012B06D8834B8A
:104E140040F225128249834802F092F9FB68002B84
:104E24000FD0FB6819683A7F7B4813465B00134434
:104E3400DB00034404331B68994202D197F91C3008
:104E4400E5E0FB7C012B3BD13A7F734913465B00C1
:104E54001344DB000B441B68002B18D03A7F6E49C7
:104E640013465B001344DB000B4412331B883A8B5C
:104E74009A4240D83B7FFB763A7F674913465B00F2
:104E84001344DB000B4412331B883B8333E03A7F2B
:104E9400614913465B001344DB000B4412331B8847
:104EA400FA8A9A4227D83B7FFB773A7F5A491346BE
:104EB4005B001344DB000B4412331B88FB821AE0B3
:104EC400FB7C012B17D93A7F534913465B001344EB
:104ED400DB000B4412331B88BA8A9A420BD83B7FFF
:104EE400BB773A7F4C4913465B001344DB000B4409
:104EF40012331B88BB823B7F01333B773B7F092BFB
:104F04007FF668AFFB7A03F00203002B08D197F910
:104F14001D300A2B07D1FB7A03F00103002B02D1C9
:104F24004FF0FF3373E097F91D30092B02DC7B7FD0
:104F34003B7736E097F91E30092B13DCBB7F3B77B8
:104F44003A7F354913465B001344DB000B441B686E
:104F5400002B18D0314B40F26F123349314802F024
:104F6400EFF810E097F91F30092B02DCFB7F3B7749
:104F740009E097F91B30092B02DCFB7E3B7702E04A
:104F84004FF0FF3343E03B7F092B06D9234B40F21C
:104F940081122649234802F0D3F83B7F1846FFF7D5
:104FA40025FE3B7F092B06D91C4B40F285121F4975
:104FB4001C4802F0C5F83A7F174913465B001344B6
:104FC400DB000B4414331B78002B06D0134B4FF437
:104FD400C3721749134802F0B3F8FB68002B0AD0D8
:104FE4003A7FFB6819680C4813465B001344DB00E6
:104FF4000344043319603A7F074913465B001344A2
:10500400DB000B44123300221A8097F91C30184637
:105014002037BD4680BD00BF5C830020DC870008CC
:1050240014880008548800087C88000894880008C4
:10503400A888000880B588B002AFF860B9607A60CB
:10504400FB70FB6893F82830062B06D0484B40F2DF
:10505400AB124849484802F073F8BB68002B12D0E1
:10506400BB681B68002B0ED0BB681B68F968184628
:1050740001F0CCF80346002B05D1BB681B6803F094
:10508400F003E02B02D16FF00F036CE0FB78FA68B9
:105094001946B868FFF784FE0346FB7597F9173085
:1050A400002B02DA97F917305DE097F9172033499E
:1050B40013465B001344DB000B44143302221A70C2
:1050C40097F917202D4913465B001344DB000B446A
:1050D4000833FA681A6097F9172013465B001344E3
:1050E400DB000833254A1344043306227968184642
:1050F40002F000F997F91720204913465B00134486
:10510400DB000B44123300221A8097F917201B4945
:1051140013465B001344DB000B441B68002B21D0B7
:1051240097F91720154913465B001344DB000B4421
:105134001B683B6197F91720104913465B00134421
:10514400DB000B4400221A60FB6803F129024FF4D0
:10515400006300937B683969F86801F0F9FE3869E7
:10516400FFF72AFA002318461837BD4680BD00BF52
:10517400DC870008D4880008548800085C83002079
:1051840080B584B000AF78600023FB731FE0FA7B26
:10519400134913465B001344DB000B4414331B78A0
:1051A400BB73BB7B002B0FD0FA7B0D4913465B000E
:1051B4001344DB000B4408331B687A689A4203D11A
:1051C400FB7B1846FFF712FDFB7B0133FB73FB7B74
:1051D400092BDCD900BF00BF1037BD4680BD00BF1E
:1051E4005C830020B0B58AB004AF786039603B6856
:1051F400002B07D13D4B4FF422723D493D4801F04D
:105204009FFF6FE07B685B683B613B691B889BB2D7
:10521400B3F5807F0CD13B691B79062B08D13B6920
:105224005B79042B04D13B695B889BB2082B03D0C8
:105234007868FFF7C1F955E03B690E331B68FB60E2
:105244003B6918331B68BB603B6804331B68002B45
:1052540002D10023FB7509E0BA683B6804331B687C
:105264009A420CBF01230023DBB2FB753B6903F1B7
:105274000802FB7D002B01D0012300E0022307F18B
:105284000C013868FFF7D6FE3B69DB889BB2B3F5A7
:10529400807F03D0B3F5007F1ED020E0FB7D002B80
:1052A4001CD03B6803F129003B6903F108043B6807
:1052B40003F129053B6804333A690832022103915A
:1052C40007F10C010291019200932B4622460146FC
:1052D400386800F0E1FA01E000BF00E000BF786840
:1052E400FFF76AF91837BD46B0BD00BFDC87000878
:1052F4002C8900085488000880B586B002AFF86095
:10530400B9601346FB71FA79444913465B001344B0
:10531400DB000B4414331B78012B06D8404B4FF4AD
:105324003B724049404801F00BFFFA793B49134670
:105334005B001344DB000B4414331B78022B53D162
:10534400FA79364913465B001344DB000B441233ED
:105354001B88B3F58E7F19D9FA7913465B00134481
:10536400DB002E4A134404331946F86800F042FB6C
:105374000346002B38D1FA79284913465B001344BD
:10538400DB000B44143303221A702DE0FA7923490D
:1053940013465B001344DB000B4412331B88B3F544
:1053A400877F21D3FA7913465B001344DB001B4A41
:1053B4001344191DFA7913465B001344DB000833C8
:1053C400164A134404331A46F86800F0F1FA034607
:1053D400002B09D1FA79114913465B001344DB0011
:1053E4000B44143303221A70FB6803F12901FA7980
:1053F40013465B001344DB000833084A13440433A8
:105404004FF4006200920A46B968F86801F0A0FD02
:10541400034618461037BD4680BD00BF5C8300209C
:10542400DC8700084C8900085488000880B58AB0DD
:1054340002AFF860B9607A607B68BB61FB68002BDF
:1054440006D1694B40F21B326849694801F078FE85
:10545400BB68002B06D1644B4FF44772654964481E
:1054640001F06EFE7B68002B06D15F4B40F21D32CB
:1054740061495F4801F064FE7B681B68F96818465F
:1054840000F0C4FE0346002B02D05C4BFB619BE0A2
:105494007B681B6803F0F003E02B18D101233B74F5
:1054A40000237B745E23BB747B6801331B7803F099
:1054B4007F03DBB2FB747B6802331B783B757B682C
:1054C40003331B787B7507F11003FB617CE07B6879
:1054D4001A68FB6804331B685A40FB6808331B686E
:1054E4001340002B12D07B681B689BB24FF6A96255
:1054F40093420BD0FB680C331B68002B03D0FB6872
:105504000C33BB6102E06FF0030369E03C4B1B7892
:1055140019463C4A0B465B000B44DB00134414332E
:105524001B78012B17D9BB691A68354B1B781846B1
:10553400344903465B000344DB000B4404331B681B
:105544009A4208D12E4B1B781A46B968F868FFF7BF
:10555400D3FE034644E00023FB752AE097F91720A5
:10556400284913465B001344DB000B4414331B78B7
:10557400012B18D9BB69196897F9172021481346DC
:105584005B001344DB00034404331B6899420AD1D3
:10559400FA7D1B4B1A70FB7D1A46B968F868FFF751
:1055A400ABFE03461CE097F91730DBB20133DBB2E4
:1055B400FB7597F91730092BD0DDBA68B969F8681B
:1055C40000F022F803460BE0FB6803F129024FF4D4
:1055D40000630093FB69B968F86801F0B9FC0346FD
:1055E40018462037BD4680BDDC8700082C8900089A
:1055F400548800087C8900081C890008CC8E0008A7
:105604004C8400205C83002080B58CB002AFF8602D
:10561400B9607A60FB6829337B61FF2387F8273000
:1056240000233B62BB681B68F968184600F0EEFD76
:105634000346002B0CD1BB681B6803F0F003E02B7E
:1056440006D0BB68002B03D0BB681B68002B02D1BB
:105654006FF00F030EE1FA680121B868FFF7A0FBB1
:105664000346FB7497F91330002B02DA97F91330D1
:1056740000E197F91320814913465B001344DB00D2
:105684000B4414331B78002B17D101233B6297F989
:1056940013207A4913465B001344DB000B44143394
:1056A40001221A7097F91320744913465B001344BE
:1056B400DB000B440833FA681A6097F913206F492A
:1056C40013465B001344DB000B4414331B78012B9B
:1056D40012D097F91320694913465B001344DB0089
:1056E4000B4414331B78012B06D8654B40F2C732A8
:1056F4006449654801F024FD3B6A002B02D17B68B4
:10570400002B0CD1B968F86800F074F9034687F8E7
:1057140027307B68002B02D197F92730AAE07B68F9
:10572400002B06D1564B40F2DB325849564801F063
:1057340007FD97F91320514913465B001344DB001E
:105744000B4414331B78012B18D9FA7C504B1A7074
:1057540097F9132013465B001344DB000833474AD0
:10576400134404334FF4006200927A697968F8684C
:1057740001F0EEFB034687F8273079E097F9132010
:105784003E4913465B001344DB000B4414331B787F
:10579400012B6DD10023BB617B68FB611AE0FB69BF
:1057A4005A89FB691B899A420AD1FB691B68002B41
:1057B40006D0334B4FF47B723649334801F0C0FCBA
:1057C400FB691B7B012B02D00123BB6105E0FB6954
:1057D4001B68FB61FB69002BE1D1BB69002B17D06F
:1057E400FB691B89002219460220FEF771FBF86150
:1057F400FB69002B11D07968F869FEF7FFFF0346B7
:10580400002B0AD0F869FEF7D7FE0023FB6104E001
:105814007B68FB61F869FEF779FFFB69002B24D0F4
:1058240097F91320154913465B001344DB000B441E
:105834001B68002B0BD097F91320104913465B000B
:105844001344DB000B441B681846FEF7B5FE97F9BA
:1058540013200A4913465B001344DB000B44FA6926
:105864001A60002387F8273002E0FF2387F82730E7
:1058740097F9273018462837BD4680BD5C83002041
:10588400DC87000888890008548800087C8900089F
:105894004C840020B089000880B58AB002AFF8605B
:1058A400B9607A603B600023FB77FB68002B06D16C
:1058B4003A4B4FF48B623A493A4801F041FC0022DA
:1058C4001C210220FEF704FBB861BB69002B02D146
:1058D4004FF0FF335DE0BB695B891B2B06D82F4B70
:1058E40040F2634230492F4801F02AFCBB695B68EF
:1058F4007B61BB8E1846FDF78CFD03461A467B6917
:10590400DA80FB6893F82830062B06D0234B40F24C
:105914006A422649234801F013FC7B6908330622B6
:105924003968184601F0E6FC7B6912330622F96AED
:10593400184601F0DFFC7B690E33BA6A12681A60FC
:105944007B6918333A6B12681A607B6900221A70FB
:10595400002242F001025A707B69002242F00802E0
:105964009A700022DA707B6906221A717B6904221C
:105974005A7140F6060300937B68BA68B969F868FF
:1059840001F0E6FAB869FEF717FE0023BB6197F948
:105994001F3018462037BD4680BD00BFDC87000895
:1059A4002C89000854880008CC890008008A000863
:1059B40080B588B004AFF860B9607A60FB6803F121
:1059C4002901FB6803F12900FB68043301220392D7
:1059D400BA680292064A0192009303467A68F8680C
:1059E400FFF75AFF034618461037BD4680BD00BF77
:1059F400D48E000880B582B000AF78603960054A63
:105A040039687868FFF7D4FF034618460837BD465F
:105A140080BD00BFCC8E000880B58EB004AF786026
:105A240039607A4B9B687B627B6A1B789BB203F07C
:105A34000F039BB29B007B847B8C132B40F2D180A1
:105A44007B685B89032B40F2CE807B685B681B78A4
:105A540087F8213097F82130002B00F0BB80082B09
:105A640040F0BB806A4BFB61684B5B6903F0F00359
:105A7400E02B00F0BF80654B5B69644A12681146F5
:105A8400184600F0C3FB0346002B40F0B5807B684A
:105A94001B89072B40F2A9807B8C0E339BB21BB26F
:105AA40019467868FEF764FD0346002B46D07B68F0
:105AB4001A897B8C13449BB2002219460220FEF7FC
:105AC40007FAB861BB69002B00F09880BB695B8959
